{
  "contractName": "ERC721",
  "abi": [
    {
      "inputs": [
        {
          "internalType": "string",
          "name": "name_",
          "type": "string"
        },
        {
          "internalType": "string",
          "name": "symbol_",
          "type": "string"
        }
      ],
      "stateMutability": "nonpayable",
      "type": "constructor"
    },
    {
      "anonymous": false,
      "inputs": [
        {
          "indexed": true,
          "internalType": "address",
          "name": "owner",
          "type": "address"
        },
        {
          "indexed": true,
          "internalType": "address",
          "name": "approved",
          "type": "address"
        },
        {
          "indexed": true,
          "internalType": "uint256",
          "name": "tokenId",
          "type": "uint256"
        }
      ],
      "name": "Approval",
      "type": "event"
    },
    {
      "anonymous": false,
      "inputs": [
        {
          "indexed": true,
          "internalType": "address",
          "name": "owner",
          "type": "address"
        },
        {
          "indexed": true,
          "internalType": "address",
          "name": "operator",
          "type": "address"
        },
        {
          "indexed": false,
          "internalType": "bool",
          "name": "approved",
          "type": "bool"
        }
      ],
      "name": "ApprovalForAll",
      "type": "event"
    },
    {
      "anonymous": false,
      "inputs": [
        {
          "indexed": true,
          "internalType": "address",
          "name": "from",
          "type": "address"
        },
        {
          "indexed": true,
          "internalType": "address",
          "name": "to",
          "type": "address"
        },
        {
          "indexed": true,
          "internalType": "uint256",
          "name": "tokenId",
          "type": "uint256"
        }
      ],
      "name": "Transfer",
      "type": "event"
    },
    {
      "inputs": [
        {
          "internalType": "uint256",
          "name": "_tokenId",
          "type": "uint256"
        },
        {
          "internalType": "uint256",
          "name": "_salePrice",
          "type": "uint256"
        }
      ],
      "name": "royaltyInfo",
      "outputs": [
        {
          "internalType": "address",
          "name": "",
          "type": "address"
        },
        {
          "internalType": "uint256",
          "name": "",
          "type": "uint256"
        }
      ],
      "stateMutability": "view",
      "type": "function"
    },
    {
      "inputs": [],
      "name": "totalSupply",
      "outputs": [
        {
          "internalType": "uint256",
          "name": "",
          "type": "uint256"
        }
      ],
      "stateMutability": "view",
      "type": "function"
    },
    {
      "inputs": [
        {
          "internalType": "address",
          "name": "owner",
          "type": "address"
        },
        {
          "internalType": "uint256",
          "name": "index",
          "type": "uint256"
        }
      ],
      "name": "tokenOfOwnerByIndex",
      "outputs": [
        {
          "internalType": "uint256",
          "name": "",
          "type": "uint256"
        }
      ],
      "stateMutability": "view",
      "type": "function"
    },
    {
      "inputs": [
        {
          "internalType": "uint256",
          "name": "index",
          "type": "uint256"
        }
      ],
      "name": "tokenByIndex",
      "outputs": [
        {
          "internalType": "uint256",
          "name": "",
          "type": "uint256"
        }
      ],
      "stateMutability": "view",
      "type": "function"
    },
    {
      "inputs": [],
      "name": "name",
      "outputs": [
        {
          "internalType": "string",
          "name": "",
          "type": "string"
        }
      ],
      "stateMutability": "view",
      "type": "function"
    },
    {
      "inputs": [],
      "name": "symbol",
      "outputs": [
        {
          "internalType": "string",
          "name": "",
          "type": "string"
        }
      ],
      "stateMutability": "view",
      "type": "function"
    },
    {
      "inputs": [
        {
          "internalType": "uint256",
          "name": "tokenId",
          "type": "uint256"
        }
      ],
      "name": "tokenURI",
      "outputs": [
        {
          "internalType": "string",
          "name": "",
          "type": "string"
        }
      ],
      "stateMutability": "view",
      "type": "function"
    },
    {
      "inputs": [
        {
          "internalType": "address",
          "name": "owner",
          "type": "address"
        }
      ],
      "name": "balanceOf",
      "outputs": [
        {
          "internalType": "uint256",
          "name": "",
          "type": "uint256"
        }
      ],
      "stateMutability": "view",
      "type": "function"
    },
    {
      "inputs": [
        {
          "internalType": "uint256",
          "name": "tokenId",
          "type": "uint256"
        }
      ],
      "name": "ownerOf",
      "outputs": [
        {
          "internalType": "address",
          "name": "",
          "type": "address"
        }
      ],
      "stateMutability": "view",
      "type": "function"
    },
    {
      "inputs": [
        {
          "internalType": "address",
          "name": "from",
          "type": "address"
        },
        {
          "internalType": "address",
          "name": "to",
          "type": "address"
        },
        {
          "internalType": "uint256",
          "name": "tokenId",
          "type": "uint256"
        }
      ],
      "name": "transferFrom",
      "outputs": [],
      "stateMutability": "nonpayable",
      "type": "function"
    },
    {
      "inputs": [
        {
          "internalType": "address",
          "name": "to",
          "type": "address"
        },
        {
          "internalType": "uint256",
          "name": "tokenId",
          "type": "uint256"
        }
      ],
      "name": "approve",
      "outputs": [],
      "stateMutability": "nonpayable",
      "type": "function"
    },
    {
      "inputs": [
        {
          "internalType": "uint256",
          "name": "tokenId",
          "type": "uint256"
        }
      ],
      "name": "getApproved",
      "outputs": [
        {
          "internalType": "address",
          "name": "",
          "type": "address"
        }
      ],
      "stateMutability": "view",
      "type": "function"
    },
    {
      "inputs": [
        {
          "internalType": "address",
          "name": "operator",
          "type": "address"
        },
        {
          "internalType": "bool",
          "name": "approved",
          "type": "bool"
        }
      ],
      "name": "setApprovalForAll",
      "outputs": [],
      "stateMutability": "nonpayable",
      "type": "function"
    },
    {
      "inputs": [
        {
          "internalType": "address",
          "name": "owner",
          "type": "address"
        },
        {
          "internalType": "address",
          "name": "operator",
          "type": "address"
        }
      ],
      "name": "isApprovedForAll",
      "outputs": [
        {
          "internalType": "bool",
          "name": "",
          "type": "bool"
        }
      ],
      "stateMutability": "view",
      "type": "function"
    },
    {
      "inputs": [
        {
          "internalType": "address",
          "name": "from",
          "type": "address"
        },
        {
          "internalType": "address",
          "name": "to",
          "type": "address"
        },
        {
          "internalType": "uint256",
          "name": "tokenId",
          "type": "uint256"
        }
      ],
      "name": "safeTransferFrom",
      "outputs": [],
      "stateMutability": "nonpayable",
      "type": "function"
    },
    {
      "inputs": [
        {
          "internalType": "address",
          "name": "from",
          "type": "address"
        },
        {
          "internalType": "address",
          "name": "to",
          "type": "address"
        },
        {
          "internalType": "uint256",
          "name": "tokenId",
          "type": "uint256"
        },
        {
          "internalType": "bytes",
          "name": "_data",
          "type": "bytes"
        }
      ],
      "name": "safeTransferFrom",
      "outputs": [],
      "stateMutability": "nonpayable",
      "type": "function"
    },
    {
      "inputs": [
        {
          "internalType": "bytes4",
          "name": "interfaceId",
          "type": "bytes4"
        }
      ],
      "name": "supportsInterface",
      "outputs": [
        {
          "internalType": "bool",
          "name": "",
          "type": "bool"
        }
      ],
      "stateMutability": "view",
      "type": "function"
    },
    {
      "inputs": [],
      "name": "baseURI",
      "outputs": [
        {
          "internalType": "string",
          "name": "",
          "type": "string"
        }
      ],
      "stateMutability": "view",
      "type": "function"
    }
  ],
  "bytecode": "0x60806040523480156200001157600080fd5b50604051620034a1380380620034a18339818101604052810190620000379190620002be565b81600890805190602001906200004f92919062000071565b5080600990805190602001906200006892919062000071565b505050620003a8565b8280546200007f9062000372565b90600052602060002090601f016020900481019282620000a35760008555620000ef565b82601f10620000be57805160ff1916838001178555620000ef565b82800160010185558215620000ef579182015b82811115620000ee578251825591602001919060010190620000d1565b5b509050620000fe919062000102565b5090565b5b808211156200011d57600081600090555060010162000103565b5090565b6000604051905090565b600080fd5b600080fd5b600080fd5b600080fd5b6000601f19601f8301169050919050565b7f4e487b7100000000000000000000000000000000000000000000000000000000600052604160045260246000fd5b6200018a826200013f565b810181811067ffffffffffffffff82111715620001ac57620001ab62000150565b5b80604052505050565b6000620001c162000121565b9050620001cf82826200017f565b919050565b600067ffffffffffffffff821115620001f257620001f162000150565b5b620001fd826200013f565b9050602081019050919050565b60005b838110156200022a5780820151818401526020810190506200020d565b838111156200023a576000848401525b50505050565b6000620002576200025184620001d4565b620001b5565b9050828152602081018484840111156200027657620002756200013a565b5b620002838482856200020a565b509392505050565b600082601f830112620002a357620002a262000135565b5b8151620002b584826020860162000240565b91505092915050565b60008060408385031215620002d857620002d76200012b565b5b600083015167ffffffffffffffff811115620002f957620002f862000130565b5b62000307858286016200028b565b925050602083015167ffffffffffffffff8111156200032b576200032a62000130565b5b62000339858286016200028b565b9150509250929050565b7f4e487b7100000000000000000000000000000000000000000000000000000000600052602260045260246000fd5b600060028204905060018216806200038b57607f821691505b60208210811415620003a257620003a162000343565b5b50919050565b6130e980620003b86000396000f3fe608060405234801561001057600080fd5b50600436106101165760003560e01c80634f6ccce7116100a257806395d89b411161007157806395d89b411461031a578063a22cb46514610338578063b88d4fde14610354578063c87b56dd14610370578063e985e9c5146103a057610116565b80634f6ccce71461026c5780636352211e1461029c5780636c0360eb146102cc57806370a08231146102ea57610116565b806318160ddd116100e957806318160ddd146101b557806323b872dd146101d35780632a55205a146101ef5780632f745c591461022057806342842e0e1461025057610116565b806301ffc9a71461011b57806306fdde031461014b578063081812fc14610169578063095ea7b314610199575b600080fd5b61013560048036038101906101309190611f38565b6103d0565b6040516101429190611f80565b60405180910390f35b610153610582565b6040516101609190612034565b60405180910390f35b610183600480360381019061017e919061208c565b610614565b60405161019091906120fa565b60405180910390f35b6101b360048036038101906101ae9190612141565b610699565b005b6101bd6107b1565b6040516101ca9190612190565b60405180910390f35b6101ed60048036038101906101e891906121ab565b6107c2565b005b610209600480360381019061020491906121fe565b610822565b60405161021792919061223e565b60405180910390f35b61023a60048036038101906102359190612141565b610a0d565b6040516102479190612190565b60405180910390f35b61026a600480360381019061026591906121ab565b610a68565b005b6102866004803603810190610281919061208c565b610a88565b6040516102939190612190565b60405180910390f35b6102b660048036038101906102b1919061208c565b610aab565b6040516102c391906120fa565b60405180910390f35b6102d4610ae2565b6040516102e19190612034565b60405180910390f35b61030460048036038101906102ff9190612267565b610b74565b6040516103119190612190565b60405180910390f35b610322610c33565b60405161032f9190612034565b60405180910390f35b610352600480360381019061034d91906122c0565b610cc5565b005b61036e60048036038101906103699190612435565b610e46565b005b61038a6004803603810190610385919061208c565b610ea8565b6040516103979190612034565b60405180910390f35b6103ba60048036038101906103b591906124b8565b61101b565b6040516103c79190611f80565b60405180910390f35b60006103db826110af565b8061044357507f2a55205a000000000000000000000000000000000000000000000000000000007bffffffffffffffffffffffffffffffffffffffffffffffffffffffff1916827bffffffffffffffffffffffffffffffffffffffffffffffffffffffff1916145b806104ab57507f80ac58cd000000000000000000000000000000000000000000000000000000007bffffffffffffffffffffffffffffffffffffffffffffffffffffffff1916827bffffffffffffffffffffffffffffffffffffffffffffffffffffffff1916145b8061051357507f5b5e139f000000000000000000000000000000000000000000000000000000007bffffffffffffffffffffffffffffffffffffffffffffffffffffffff1916827bffffffffffffffffffffffffffffffffffffffffffffffffffffffff1916145b8061057b57507f780e9d63000000000000000000000000000000000000000000000000000000007bffffffffffffffffffffffffffffffffffffffffffffffffffffffff1916827bffffffffffffffffffffffffffffffffffffffffffffffffffffffff1916145b9050919050565b60606008805461059190612527565b80601f01602080910402602001604051908101604052809291908181526020018280546105bd90612527565b801561060a5780601f106105df5761010080835404028352916020019161060a565b820191906000526020600020905b8154815290600101906020018083116105ed57829003601f168201915b5050505050905090565b600061061f82611129565b61065e576040517f08c379a0000000000000000000000000000000000000000000000000000000008152600401610655906125cb565b60405180910390fd5b6006600083815260200190815260200160002060009054906101000a900473ffffffffffffffffffffffffffffffffffffffff169050919050565b60006106a482610aab565b90508073ffffffffffffffffffffffffffffffffffffffff168373ffffffffffffffffffffffffffffffffffffffff161415610715576040517f08c379a000000000000000000000000000000000000000000000000000000000815260040161070c9061265d565b60405180910390fd5b8073ffffffffffffffffffffffffffffffffffffffff16610734611146565b73ffffffffffffffffffffffffffffffffffffffff16148061076357506107628161075d611146565b61101b565b5b6107a2576040517f08c379a0000000000000000000000000000000000000000000000000000000008152600401610799906126ef565b60405180910390fd5b6107ac838361114e565b505050565b60006107bd6003611207565b905090565b6107d36107cd611146565b8261121c565b610812576040517f08c379a000000000000000000000000000000000000000000000000000000000815260040161080990612781565b60405180910390fd5b61081d8383836112fa565b505050565b6000806000600160008681526020019081526020016000206040518060400160405290816000820160009054906101000a900473ffffffffffffffffffffffffffffffffffffffff1673ffffffffffffffffffffffffffffffffffffffff1673ffffffffffffffffffffffffffffffffffffffff1681526020016000820160149054906101000a90046bffffffffffffffffffffffff166bffffffffffffffffffffffff166bffffffffffffffffffffffff16815250509050600073ffffffffffffffffffffffffffffffffffffffff16816000015173ffffffffffffffffffffffffffffffffffffffff1614156109b85760006040518060400160405290816000820160009054906101000a900473ffffffffffffffffffffffffffffffffffffffff1673ffffffffffffffffffffffffffffffffffffffff1673ffffffffffffffffffffffffffffffffffffffff1681526020016000820160149054906101000a90046bffffffffffffffffffffffff166bffffffffffffffffffffffff166bffffffffffffffffffffffff168152505090505b60006109c2611511565b6bffffffffffffffffffffffff1682602001516bffffffffffffffffffffffff16866109ee91906127d0565b6109f89190612859565b90508160000151819350935050509250929050565b6000610a6082600260008673ffffffffffffffffffffffffffffffffffffffff1673ffffffffffffffffffffffffffffffffffffffff16815260200190815260200160002061151b90919063ffffffff16565b905092915050565b610a8383838360405180602001604052806000815250610e46565b505050565b600080610a9f83600361153590919063ffffffff16565b50905080915050919050565b6000610adb8260405180606001604052806029815260200161308b6029913960036115619092919063ffffffff16565b9050919050565b6060600b8054610af190612527565b80601f0160208091040260200160405190810160405280929190818152602001828054610b1d90612527565b8015610b6a5780601f10610b3f57610100808354040283529160200191610b6a565b820191906000526020600020905b815481529060010190602001808311610b4d57829003601f168201915b5050505050905090565b60008073ffffffffffffffffffffffffffffffffffffffff168273ffffffffffffffffffffffffffffffffffffffff161415610be5576040517f08c379a0000000000000000000000000000000000000000000000000000000008152600401610bdc906128fc565b60405180910390fd5b610c2c600260008473ffffffffffffffffffffffffffffffffffffffff1673ffffffffffffffffffffffffffffffffffffffff168152602001908152602001600020611580565b9050919050565b606060098054610c4290612527565b80601f0160208091040260200160405190810160405280929190818152602001828054610c6e90612527565b8015610cbb5780601f10610c9057610100808354040283529160200191610cbb565b820191906000526020600020905b815481529060010190602001808311610c9e57829003601f168201915b5050505050905090565b610ccd611146565b73ffffffffffffffffffffffffffffffffffffffff168273ffffffffffffffffffffffffffffffffffffffff161415610d3b576040517f08c379a0000000000000000000000000000000000000000000000000000000008152600401610d3290612968565b60405180910390fd5b8060076000610d48611146565b73ffffffffffffffffffffffffffffffffffffffff1673ffffffffffffffffffffffffffffffffffffffff16815260200190815260200160002060008473ffffffffffffffffffffffffffffffffffffffff1673ffffffffffffffffffffffffffffffffffffffff16815260200190815260200160002060006101000a81548160ff0219169083151502179055508173ffffffffffffffffffffffffffffffffffffffff16610df5611146565b73ffffffffffffffffffffffffffffffffffffffff167f17307eab39ab6107e8899845ad3d59bd9653f200f220920489ca2b5937696c3183604051610e3a9190611f80565b60405180910390a35050565b610e57610e51611146565b8361121c565b610e96576040517f08c379a0000000000000000000000000000000000000000000000000000000008152600401610e8d90612781565b60405180910390fd5b610ea284848484611595565b50505050565b6060610eb382611129565b610ef2576040517f08c379a0000000000000000000000000000000000000000000000000000000008152600401610ee9906129fa565b60405180910390fd5b6000600a60008481526020019081526020016000208054610f1290612527565b80601f0160208091040260200160405190810160405280929190818152602001828054610f3e90612527565b8015610f8b5780601f10610f6057610100808354040283529160200191610f8b565b820191906000526020600020905b815481529060010190602001808311610f6e57829003601f168201915b505050505090506000610f9c610ae2565b9050600081511415610fb2578192505050611016565b600082511115610fe7578082604051602001610fcf929190612a56565b60405160208183030381529060405292505050611016565b80610ff1856115f1565b604051602001611002929190612a56565b604051602081830303815290604052925050505b919050565b6000600760008473ffffffffffffffffffffffffffffffffffffffff1673ffffffffffffffffffffffffffffffffffffffff16815260200190815260200160002060008373ffffffffffffffffffffffffffffffffffffffff1673ffffffffffffffffffffffffffffffffffffffff16815260200190815260200160002060009054906101000a900460ff16905092915050565b60007f2a55205a000000000000000000000000000000000000000000000000000000007bffffffffffffffffffffffffffffffffffffffffffffffffffffffff1916827bffffffffffffffffffffffffffffffffffffffffffffffffffffffff19161480611122575061112182611752565b5b9050919050565b600061113f8260036117bc90919063ffffffff16565b9050919050565b600033905090565b816006600083815260200190815260200160002060006101000a81548173ffffffffffffffffffffffffffffffffffffffff021916908373ffffffffffffffffffffffffffffffffffffffff160217905550808273ffffffffffffffffffffffffffffffffffffffff166111c183610aab565b73ffffffffffffffffffffffffffffffffffffffff167f8c5be1e5ebec7d5bd14f71427d1e84f3dd0314c0f7b2291e5b200ac8c7c3b92560405160405180910390a45050565b6000611215826000016117d6565b9050919050565b600061122782611129565b611266576040517f08c379a000000000000000000000000000000000000000000000000000000000815260040161125d90612aec565b60405180910390fd5b600061127183610aab565b90508073ffffffffffffffffffffffffffffffffffffffff168473ffffffffffffffffffffffffffffffffffffffff1614806112e057508373ffffffffffffffffffffffffffffffffffffffff166112c884610614565b73ffffffffffffffffffffffffffffffffffffffff16145b806112f157506112f0818561101b565b5b91505092915050565b8273ffffffffffffffffffffffffffffffffffffffff1661131a82610aab565b73ffffffffffffffffffffffffffffffffffffffff1614611370576040517f08c379a000000000000000000000000000000000000000000000000000000000815260040161136790612b7e565b60405180910390fd5b600073ffffffffffffffffffffffffffffffffffffffff168273ffffffffffffffffffffffffffffffffffffffff1614156113e0576040517f08c379a00000000000000000000000000000000000000000000000000000000081526004016113d790612c10565b60405180910390fd5b6113eb8383836117eb565b6113f660008261114e565b61144781600260008673ffffffffffffffffffffffffffffffffffffffff1673ffffffffffffffffffffffffffffffffffffffff1681526020019081526020016000206117f090919063ffffffff16565b5061149981600260008573ffffffffffffffffffffffffffffffffffffffff1673ffffffffffffffffffffffffffffffffffffffff16815260200190815260200160002061180a90919063ffffffff16565b506114b0818360036118249092919063ffffffff16565b50808273ffffffffffffffffffffffffffffffffffffffff168473ffffffffffffffffffffffffffffffffffffffff167fddf252ad1be2c89b69c2b068fc378daa952ba7f163c4a11628f55a4df523b3ef60405160405180910390a4505050565b6000612710905090565b600061152a8360000183611859565b60001c905092915050565b6000806000806115488660000186611884565b915091508160001c8160001c9350935050509250929050565b6000611574846000018460001b846118c4565b60001c90509392505050565b600061158e82600001611945565b9050919050565b6115a08484846112fa565b6115ac84848484611956565b6115eb576040517f08c379a00000000000000000000000000000000000000000000000000000000081526004016115e290612ca2565b60405180910390fd5b50505050565b60606000821415611639576040518060400160405280600181526020017f3000000000000000000000000000000000000000000000000000000000000000815250905061174d565b600082905060005b6000821461166b57808061165490612cc2565b915050600a826116649190612859565b9150611641565b60008167ffffffffffffffff8111156116875761168661230a565b5b6040519080825280601f01601f1916602001820160405280156116b95781602001600182028036833780820191505090505b5090505b60008514611746576001826116d29190612d0b565b9150600a856116e19190612d3f565b60306116ed9190612d70565b60f81b81838151811061170357611702612dc6565b5b60200101907effffffffffffffffffffffffffffffffffffffffffffffffffffffffffffff1916908160001a905350600a8561173f9190612859565b94506116bd565b8093505050505b919050565b60007f01ffc9a7000000000000000000000000000000000000000000000000000000007bffffffffffffffffffffffffffffffffffffffffffffffffffffffff1916827bffffffffffffffffffffffffffffffffffffffffffffffffffffffff1916149050919050565b60006117ce836000018360001b611aba565b905092915050565b60006117e482600001611ada565b9050919050565b505050565b6000611802836000018360001b611aef565b905092915050565b600061181c836000018360001b611c03565b905092915050565b6000611850846000018460001b8473ffffffffffffffffffffffffffffffffffffffff1660001b611c73565b90509392505050565b600082600001828154811061187157611870612dc6565b5b9060005260206000200154905092915050565b600080600061189f8486600001611cae90919063ffffffff16565b9050808560020160008381526020019081526020016000205492509250509250929050565b6000808460020160008581526020019081526020016000205490506000801b811415806118f757506118f68585611aba565b5b8390611939576040517f08c379a00000000000000000000000000000000000000000000000000000000081526004016119309190612034565b60405180910390fd5b50809150509392505050565b600081600001805490509050919050565b60006119778473ffffffffffffffffffffffffffffffffffffffff16611cc5565b6119845760019050611ab2565b6000611a4b63150b7a0260e01b611999611146565b8887876040516024016119af9493929190612e4a565b604051602081830303815290604052907bffffffffffffffffffffffffffffffffffffffffffffffffffffffff19166020820180517bffffffffffffffffffffffffffffffffffffffffffffffffffffffff8381831617835250505050604051806060016040528060328152602001613059603291398773ffffffffffffffffffffffffffffffffffffffff16611ce89092919063ffffffff16565b9050600081806020019051810190611a639190612eab565b905063150b7a0260e01b7bffffffffffffffffffffffffffffffffffffffffffffffffffffffff1916817bffffffffffffffffffffffffffffffffffffffffffffffffffffffff191614925050505b949350505050565b6000611ad28284600001611d0090919063ffffffff16565b905092915050565b6000611ae882600001611945565b9050919050565b60008083600101600084815260200190815260200160002054905060008114611bf7576000600182611b219190612d0b565b9050600060018660000180549050611b399190612d0b565b9050818114611ba8576000866000018281548110611b5a57611b59612dc6565b5b9060005260206000200154905080876000018481548110611b7e57611b7d612dc6565b5b90600052602060002001819055508387600101600083815260200190815260200160002081905550505b85600001805480611bbc57611bbb612ed8565b5b600190038181906000526020600020016000905590558560010160008681526020019081526020016000206000905560019350505050611bfd565b60009150505b92915050565b6000611c0f8383611d17565b611c68578260000182908060018154018082558091505060019003906000526020600020016000909190919091505582600001805490508360010160008481526020019081526020016000208190555060019050611c6d565b600090505b92915050565b60008184600201600085815260200190815260200160002081905550611ca58385600001611d3a90919063ffffffff16565b90509392505050565b6000611cbd8360000183611859565b905092915050565b6000808273ffffffffffffffffffffffffffffffffffffffff163b119050919050565b6060611cf78484600085611d51565b90509392505050565b6000611d0f8360000183611d17565b905092915050565b600080836001016000848152602001908152602001600020541415905092915050565b6000611d498360000183611c03565b905092915050565b606082471015611d96576040517f08c379a0000000000000000000000000000000000000000000000000000000008152600401611d8d90612f79565b60405180910390fd5b611d9f85611cc5565b611dde576040517f08c379a0000000000000000000000000000000000000000000000000000000008152600401611dd590612fe5565b60405180910390fd5b6000808673ffffffffffffffffffffffffffffffffffffffff168587604051611e079190613041565b60006040518083038185875af1925050503d8060008114611e44576040519150601f19603f3d011682016040523d82523d6000602084013e611e49565b606091505b5091509150611e59828286611e65565b92505050949350505050565b60608315611e7557829050611ec5565b600083511115611e885782518084602001fd5b816040517f08c379a0000000000000000000000000000000000000000000000000000000008152600401611ebc9190612034565b60405180910390fd5b9392505050565b6000604051905090565b600080fd5b600080fd5b60007fffffffff0000000000000000000000000000000000000000000000000000000082169050919050565b611f1581611ee0565b8114611f2057600080fd5b50565b600081359050611f3281611f0c565b92915050565b600060208284031215611f4e57611f4d611ed6565b5b6000611f5c84828501611f23565b91505092915050565b60008115159050919050565b611f7a81611f65565b82525050565b6000602082019050611f956000830184611f71565b92915050565b600081519050919050565b600082825260208201905092915050565b60005b83811015611fd5578082015181840152602081019050611fba565b83811115611fe4576000848401525b50505050565b6000601f19601f8301169050919050565b600061200682611f9b565b6120108185611fa6565b9350612020818560208601611fb7565b61202981611fea565b840191505092915050565b6000602082019050818103600083015261204e8184611ffb565b905092915050565b6000819050919050565b61206981612056565b811461207457600080fd5b50565b60008135905061208681612060565b92915050565b6000602082840312156120a2576120a1611ed6565b5b60006120b084828501612077565b91505092915050565b600073ffffffffffffffffffffffffffffffffffffffff82169050919050565b60006120e4826120b9565b9050919050565b6120f4816120d9565b82525050565b600060208201905061210f60008301846120eb565b92915050565b61211e816120d9565b811461212957600080fd5b50565b60008135905061213b81612115565b92915050565b6000806040838503121561215857612157611ed6565b5b60006121668582860161212c565b925050602061217785828601612077565b9150509250929050565b61218a81612056565b82525050565b60006020820190506121a56000830184612181565b92915050565b6000806000606084860312156121c4576121c3611ed6565b5b60006121d28682870161212c565b93505060206121e38682870161212c565b92505060406121f486828701612077565b9150509250925092565b6000806040838503121561221557612214611ed6565b5b600061222385828601612077565b925050602061223485828601612077565b9150509250929050565b600060408201905061225360008301856120eb565b6122606020830184612181565b9392505050565b60006020828403121561227d5761227c611ed6565b5b600061228b8482850161212c565b91505092915050565b61229d81611f65565b81146122a857600080fd5b50565b6000813590506122ba81612294565b92915050565b600080604083850312156122d7576122d6611ed6565b5b60006122e58582860161212c565b92505060206122f6858286016122ab565b9150509250929050565b600080fd5b600080fd5b7f4e487b7100000000000000000000000000000000000000000000000000000000600052604160045260246000fd5b61234282611fea565b810181811067ffffffffffffffff821117156123615761236061230a565b5b80604052505050565b6000612374611ecc565b90506123808282612339565b919050565b600067ffffffffffffffff8211156123a05761239f61230a565b5b6123a982611fea565b9050602081019050919050565b82818337600083830152505050565b60006123d86123d384612385565b61236a565b9050828152602081018484840111156123f4576123f3612305565b5b6123ff8482856123b6565b509392505050565b600082601f83011261241c5761241b612300565b5b813561242c8482602086016123c5565b91505092915050565b6000806000806080858703121561244f5761244e611ed6565b5b600061245d8782880161212c565b945050602061246e8782880161212c565b935050604061247f87828801612077565b925050606085013567ffffffffffffffff8111156124a05761249f611edb565b5b6124ac87828801612407565b91505092959194509250565b600080604083850312156124cf576124ce611ed6565b5b60006124dd8582860161212c565b92505060206124ee8582860161212c565b9150509250929050565b7f4e487b7100000000000000000000000000000000000000000000000000000000600052602260045260246000fd5b6000600282049050600182168061253f57607f821691505b60208210811415612553576125526124f8565b5b50919050565b7f4552433732313a20617070726f76656420717565727920666f72206e6f6e657860008201527f697374656e7420746f6b656e0000000000000000000000000000000000000000602082015250565b60006125b5602c83611fa6565b91506125c082612559565b604082019050919050565b600060208201905081810360008301526125e4816125a8565b9050919050565b7f4552433732313a20617070726f76616c20746f2063757272656e74206f776e6560008201527f7200000000000000000000000000000000000000000000000000000000000000602082015250565b6000612647602183611fa6565b9150612652826125eb565b604082019050919050565b600060208201905081810360008301526126768161263a565b9050919050565b7f4552433732313a20617070726f76652063616c6c6572206973206e6f74206f7760008201527f6e6572206e6f7220617070726f76656420666f7220616c6c0000000000000000602082015250565b60006126d9603883611fa6565b91506126e48261267d565b604082019050919050565b60006020820190508181036000830152612708816126cc565b9050919050565b7f4552433732313a207472616e736665722063616c6c6572206973206e6f74206f60008201527f776e6572206e6f7220617070726f766564000000000000000000000000000000602082015250565b600061276b603183611fa6565b91506127768261270f565b604082019050919050565b6000602082019050818103600083015261279a8161275e565b9050919050565b7f4e487b7100000000000000000000000000000000000000000000000000000000600052601160045260246000fd5b60006127db82612056565b91506127e683612056565b9250817fffffffffffffffffffffffffffffffffffffffffffffffffffffffffffffffff048311821515161561281f5761281e6127a1565b5b828202905092915050565b7f4e487b7100000000000000000000000000000000000000000000000000000000600052601260045260246000fd5b600061286482612056565b915061286f83612056565b92508261287f5761287e61282a565b5b828204905092915050565b7f4552433732313a2062616c616e636520717565727920666f7220746865207a6560008201527f726f206164647265737300000000000000000000000000000000000000000000602082015250565b60006128e6602a83611fa6565b91506128f18261288a565b604082019050919050565b60006020820190508181036000830152612915816128d9565b9050919050565b7f4552433732313a20617070726f766520746f2063616c6c657200000000000000600082015250565b6000612952601983611fa6565b915061295d8261291c565b602082019050919050565b6000602082019050818103600083015261298181612945565b9050919050565b7f4552433732314d657461646174613a2055524920717565727920666f72206e6f60008201527f6e6578697374656e7420746f6b656e0000000000000000000000000000000000602082015250565b60006129e4602f83611fa6565b91506129ef82612988565b604082019050919050565b60006020820190508181036000830152612a13816129d7565b9050919050565b600081905092915050565b6000612a3082611f9b565b612a3a8185612a1a565b9350612a4a818560208601611fb7565b80840191505092915050565b6000612a628285612a25565b9150612a6e8284612a25565b91508190509392505050565b7f4552433732313a206f70657261746f7220717565727920666f72206e6f6e657860008201527f697374656e7420746f6b656e0000000000000000000000000000000000000000602082015250565b6000612ad6602c83611fa6565b9150612ae182612a7a565b604082019050919050565b60006020820190508181036000830152612b0581612ac9565b9050919050565b7f4552433732313a207472616e73666572206f6620746f6b656e2074686174206960008201527f73206e6f74206f776e0000000000000000000000000000000000000000000000602082015250565b6000612b68602983611fa6565b9150612b7382612b0c565b604082019050919050565b60006020820190508181036000830152612b9781612b5b565b9050919050565b7f4552433732313a207472616e7366657220746f20746865207a65726f2061646460008201527f7265737300000000000000000000000000000000000000000000000000000000602082015250565b6000612bfa602483611fa6565b9150612c0582612b9e565b604082019050919050565b60006020820190508181036000830152612c2981612bed565b9050919050565b7f4552433732313a207472616e7366657220746f206e6f6e20455243373231526560008201527f63656976657220696d706c656d656e7465720000000000000000000000000000602082015250565b6000612c8c603283611fa6565b9150612c9782612c30565b604082019050919050565b60006020820190508181036000830152612cbb81612c7f565b9050919050565b6000612ccd82612056565b91507fffffffffffffffffffffffffffffffffffffffffffffffffffffffffffffffff821415612d0057612cff6127a1565b5b600182019050919050565b6000612d1682612056565b9150612d2183612056565b925082821015612d3457612d336127a1565b5b828203905092915050565b6000612d4a82612056565b9150612d5583612056565b925082612d6557612d6461282a565b5b828206905092915050565b6000612d7b82612056565b9150612d8683612056565b9250827fffffffffffffffffffffffffffffffffffffffffffffffffffffffffffffffff03821115612dbb57612dba6127a1565b5b828201905092915050565b7f4e487b7100000000000000000000000000000000000000000000000000000000600052603260045260246000fd5b600081519050919050565b600082825260208201905092915050565b6000612e1c82612df5565b612e268185612e00565b9350612e36818560208601611fb7565b612e3f81611fea565b840191505092915050565b6000608082019050612e5f60008301876120eb565b612e6c60208301866120eb565b612e796040830185612181565b8181036060830152612e8b8184612e11565b905095945050505050565b600081519050612ea581611f0c565b92915050565b600060208284031215612ec157612ec0611ed6565b5b6000612ecf84828501612e96565b91505092915050565b7f4e487b7100000000000000000000000000000000000000000000000000000000600052603160045260246000fd5b7f416464726573733a20696e73756666696369656e742062616c616e636520666f60008201527f722063616c6c0000000000000000000000000000000000000000000000000000602082015250565b6000612f63602683611fa6565b9150612f6e82612f07565b604082019050919050565b60006020820190508181036000830152612f9281612f56565b9050919050565b7f416464726573733a2063616c6c20746f206e6f6e2d636f6e7472616374000000600082015250565b6000612fcf601d83611fa6565b9150612fda82612f99565b602082019050919050565b60006020820190508181036000830152612ffe81612fc2565b9050919050565b600081905092915050565b600061301b82612df5565b6130258185613005565b9350613035818560208601611fb7565b80840191505092915050565b600061304d8284613010565b91508190509291505056fe4552433732313a207472616e7366657220746f206e6f6e20455243373231526563656976657220696d706c656d656e7465724552433732313a206f776e657220717565727920666f72206e6f6e6578697374656e7420746f6b656ea264697066735822122066634af0afd14981542f70653113ab627188b94690665af1f6b227b54df2b17b64736f6c634300080b0033",
  "immutableReferences": {},
  "source": "\n// contracts/GameItem.sol\n// SPDX-License-Identifier: MIT\npragma solidity ^0.8.0;\n\nimport \"@openzeppelin/contracts/utils/Context.sol\";\nimport \"@openzeppelin/contracts/utils/introspection/ERC165.sol\";\nimport \"@openzeppelin/contracts/token/common/ERC2981.sol\";\nimport \"@openzeppelin/contracts/token/ERC721/IERC721.sol\";\nimport \"@openzeppelin/contracts/token/ERC721/extensions/IERC721Metadata.sol\";\nimport \"@openzeppelin/contracts/token/ERC721/extensions/IERC721Enumerable.sol\";\nimport \"@openzeppelin/contracts/token/ERC721/IERC721Receiver.sol\";\nimport \"@openzeppelin/contracts/utils/structs/EnumerableSet.sol\";\nimport \"@openzeppelin/contracts/utils/structs/EnumerableMap.sol\";\nimport \"@openzeppelin/contracts/access/Ownable.sol\";\nimport \"@openzeppelin/contracts/utils/math/SafeMath.sol\";\nimport \"@openzeppelin/contracts/utils/Address.sol\";\nimport \"@openzeppelin/contracts/utils/Strings.sol\";\nimport \"@openzeppelin/contracts/token/ERC20/ERC20.sol\";\n\ncontract ERC721 is Context, ERC165, ERC2981, IERC721, IERC721Metadata, IERC721Enumerable {\n    using Address for address;\n    using EnumerableSet for EnumerableSet.UintSet;\n    using EnumerableMap for EnumerableMap.UintToAddressMap;\n    using Strings for uint256;\n    using SafeMath for uint256;\n\n    // Equals to `bytes4(keccak256(\"onERC721Received(address,address,uint256,bytes)\"))`\n    // which can be also obtained as `IERC721Receiver(0).onERC721Received.selector`\n    bytes4 private constant _ERC721_RECEIVED = 0x150b7a02;\n\n    // Mapping from holder address to their (enumerable) set of owned tokens\n    mapping (address => EnumerableSet.UintSet) private _holderTokens;\n\n    // Enumerable mapping from token ids to their owners\n    EnumerableMap.UintToAddressMap private _tokenOwners;\n\n    // Mapping from token ID to approved address\n    mapping (uint256 => address) private _tokenApprovals;\n\n    // Mapping from owner to operator approvals\n    mapping (address => mapping (address => bool)) private _operatorApprovals;\n\n    // Token name\n    string private _name;\n\n    // Token symbol\n    string private _symbol;\n\n    // Optional mapping for token URIs\n    mapping (uint256 => string) private _tokenURIs;\n\n    // Base URI\n    string private _baseURI;\n\n    // whitelist set of addresses\n    EnumerableSet.UintSet _whitelist;\n\n    /**\n     * @dev Initializes the contract by setting a `name` and a `symbol` to the token collection.\n     */\n    constructor (string memory name_, string memory symbol_) {\n        _name = name_;\n        _symbol = symbol_;\n    }\n\n    /**\n     * @dev See {IERC721Enumerable-totalSupply}.\n     */\n    function totalSupply() public view virtual override returns (uint256) {\n        // _tokenOwners are indexed by tokenIds, so .length() returns the number of tokenIds\n        return _tokenOwners.length();\n    }\n\n    /**\n     * @dev See {IERC721Enumerable-tokenOfOwnerByIndex}.\n     */\n    function tokenOfOwnerByIndex(address owner, uint256 index) public view virtual override returns (uint256) {\n        return _holderTokens[owner].at(index);\n    }\n\n    /**\n     * @dev See {IERC721Enumerable-tokenByIndex}.\n     */\n    function tokenByIndex(uint256 index) public view virtual override returns (uint256) {\n        (uint256 tokenId, ) = _tokenOwners.at(index);\n        return tokenId;\n    }\n\n    /**\n     * @dev See {IERC721Metadata-name}.\n     */\n    function name() public view virtual override returns (string memory) {\n        return _name;\n    }\n\n    /**\n     * @dev See {IERC721Metadata-symbol}.\n     */\n    function symbol() public view virtual override returns (string memory) {\n        return _symbol;\n    }\n\n    /**\n     * @dev See {IERC721Metadata-tokenURI}.\n     */\n    function tokenURI(uint256 tokenId) public view virtual override returns (string memory) {\n        require(_exists(tokenId), \"ERC721Metadata: URI query for nonexistent token\");\n\n        string memory _tokenURI = _tokenURIs[tokenId];\n        string memory base = baseURI();\n\n        // If there is no base URI, return the token URI.\n        if (bytes(base).length == 0) {\n            return _tokenURI;\n        }\n        // If both are set, concatenate the baseURI and tokenURI (via abi.encodePacked).\n        if (bytes(_tokenURI).length > 0) {\n            return string(abi.encodePacked(base, _tokenURI));\n        }\n        // If there is a baseURI but no tokenURI, concatenate the tokenID to the baseURI.\n        return string(abi.encodePacked(base, tokenId.toString()));\n    }\n\n    /**\n     * @dev See {IERC721-balanceOf}.\n     */\n    function balanceOf(address owner) public view virtual override returns (uint256) {\n        require(owner != address(0), \"ERC721: balance query for the zero address\");\n        return _holderTokens[owner].length();\n    }\n\n    /**\n     * @dev See {IERC721-ownerOf}.\n     */\n    function ownerOf(uint256 tokenId) public view virtual override returns (address) {\n        return _tokenOwners.get(tokenId, \"ERC721: owner query for nonexistent token\");\n    }\n    \n    /**\n     * @dev See {IERC721-safeTransferFrom}.\n     */\n    function safeTransferFrom(address from, address to, uint256 tokenId) public virtual override {\n        safeTransferFrom(from, to, tokenId, \"\");\n    }\n\n    /**\n     * @dev See {IERC721-transferFrom}.\n     */\n    function transferFrom(address from, address to, uint256 tokenId) public virtual override {\n        //solhint-disable-next-line max-line-length\n        require(_isApprovedOrOwner(_msgSender(), tokenId), \"ERC721: transfer caller is not owner nor approved\");\n\n        _transfer(from, to, tokenId);\n    }\n\n    /**\n     * @dev See {IERC721-approve}.\n     */\n    function approve(address to, uint256 tokenId) public virtual override {\n        address owner = ERC721.ownerOf(tokenId);\n        require(to != owner, \"ERC721: approval to current owner\");\n\n        require(_msgSender() == owner || ERC721.isApprovedForAll(owner, _msgSender()),\n            \"ERC721: approve caller is not owner nor approved for all\"\n        );\n\n        _approve(to, tokenId);\n    }\n\n    /**\n     * @dev See {IERC721-getApproved}.\n     */\n    function getApproved(uint256 tokenId) public view virtual override returns (address) {\n        require(_exists(tokenId), \"ERC721: approved query for nonexistent token\");\n\n        return _tokenApprovals[tokenId];\n    }\n\n    /**\n     * @dev See {IERC721-setApprovalForAll}.\n     */\n    function setApprovalForAll(address operator, bool approved) public virtual override {\n        require(operator != _msgSender(), \"ERC721: approve to caller\");\n\n        _operatorApprovals[_msgSender()][operator] = approved;\n        emit ApprovalForAll(_msgSender(), operator, approved);\n    }\n\n    /**\n     * @dev See {IERC721-isApprovedForAll}.\n     */\n    function isApprovedForAll(address owner, address operator) public view virtual override returns (bool) {\n        return _operatorApprovals[owner][operator];\n    }\n\n    /**\n     * @dev See {IERC721-safeTransferFrom}.\n     */\n    function safeTransferFrom(address from, address to, uint256 tokenId, bytes memory _data) public virtual override {\n        require(_isApprovedOrOwner(_msgSender(), tokenId), \"ERC721: transfer caller is not owner nor approved\");\n        _safeTransfer(from, to, tokenId, _data);\n    }\n\n    // override function support interface - showing what kind of interface this contract supports \n    function supportsInterface(bytes4 interfaceId) public view virtual override(ERC165, IERC165, ERC2981) returns (bool) {\n        return (super.supportsInterface(interfaceId)\n                || interfaceId == type(IERC2981).interfaceId\n                || interfaceId == type(IERC721).interfaceId\n                || interfaceId == type(IERC721Metadata).interfaceId\n                || interfaceId == type(IERC721Enumerable).interfaceId);\n    }\n\n    // custom functions\n    /**\n     * @dev Safely mints `tokenId` and transfers it to `to`.\n     *\n     * Requirements:\n     d*\n     * - `tokenId` must not exist.\n     * - If `to` refers to a smart contract, it must implement {IERC721Receiver-onERC721Received}, which is called upon a safe transfer.\n     *\n     * Emits a {Transfer} event.\n     */\n    function _safeMint(address to, uint256 tokenId) internal virtual {\n        _safeMint(to, tokenId, \"\");\n    }\n\n    /**\n     * @dev Same as {xref-ERC721-_safeMint-address-uint256-}[`_safeMint`], with an additional `data` parameter which is\n     * forwarded in {IERC721Receiver-onERC721Received} to contract recipients.\n     */\n    function _safeMint(address to, uint256 tokenId, bytes memory _data) internal virtual {\n        _mint(to, tokenId);\n        require(_checkOnERC721Received(address(0), to, tokenId, _data), \"ERC721: transfer to non ERC721Receiver implementer\");\n    }\n\n    /**\n     * @dev Mints `tokenId` and transfers it to `to`.\n     *\n     * WARNING: Usage of this method is discouraged, use {_safeMint} whenever possible\n     *\n     * Requirements:\n     *\n     * - `tokenId` must not exist.\n     * - `to` cannot be the zero address.\n     *\n     * Emits a {Transfer} event.\n     */\n     \n    function _mint(address to, uint256 tokenId) internal virtual {\n        require(to != address(0), \"ERC721: mint to the zero address\");\n        require(!_exists(tokenId), \"ERC721: token already minted\");\n\n        _beforeTokenTransfer(address(0), to, tokenId);\n\n        _holderTokens[to].add(tokenId);\n\n        _tokenOwners.set(tokenId, to);\n\n        emit Transfer(address(0), to, tokenId);\n    }\n\n    /**\n     * @dev Internal function to invoke {IERC721Receiver-onERC721Received} on a target address.\n     * The call is not executed if the target address is not a contract.\n     *\n     * @param from address representing the previous owner of the given token ID\n     * @param to target address that will receive the tokens\n     * @param tokenId uint256 ID of the token to be transferred\n     * @param _data bytes optional data to send along with the call\n     * @return bool whether the call correctly returned the expected magic value\n     */\n    function _checkOnERC721Received(address from, address to, uint256 tokenId, bytes memory _data)\n        private returns (bool)\n    {\n        if (!to.isContract()) {\n            return true;\n        }\n        bytes memory returndata = to.functionCall(abi.encodeWithSelector(\n            IERC721Receiver(to).onERC721Received.selector,\n            _msgSender(),\n            from,\n            tokenId,\n            _data\n        ), \"ERC721: transfer to non ERC721Receiver implementer\");\n        bytes4 retval = abi.decode(returndata, (bytes4));\n        return (retval == _ERC721_RECEIVED);\n    }\n\n    /**\n     * @dev Returns whether `tokenId` exists.\n     *\n     * Tokens can be managed by their owner or approved accounts via {approve} or {setApprovalForAll}.\n     *\n     * Tokens start existing when they are minted (`_mint`),\n     * and stop existing when they are burned (`_burn`).\n     */\n    function _exists(uint256 tokenId) internal view virtual returns (bool) {\n        return _tokenOwners.contains(tokenId);\n    }\n\n    /**\n     * @dev Hook that is called before any token transfer. This includes minting\n     * and burning.\n     *\n     * To be overridden\n     */\n    function _beforeTokenTransfer(address from, address to, uint256 tokenId) internal virtual { }\n\n    /**\n     * @dev Returns whether `spender` is allowed to manage `tokenId`.\n     *\n     * Requirements:\n     *\n     * - `tokenId` must exist.\n     */\n    function _isApprovedOrOwner(address spender, uint256 tokenId) internal view virtual returns (bool) {\n        require(_exists(tokenId), \"ERC721: operator query for nonexistent token\");\n        address owner = ERC721.ownerOf(tokenId);\n        return (spender == owner || getApproved(tokenId) == spender || ERC721.isApprovedForAll(owner, spender));\n    }\n\n    /**\n     * @dev Transfers `tokenId` from `from` to `to`.\n     *  As opposed to {transferFrom}, this imposes no restrictions on msg.sender.\n     *\n     * Requirements:\n     *\n     * - `to` cannot be the zero address.\n     * - `tokenId` token must be owned by `from`.\n     *\n     * Emits a {Transfer} event.\n     */\n    function _transfer(address from, address to, uint256 tokenId) internal virtual {\n        require(ERC721.ownerOf(tokenId) == from, \"ERC721: transfer of token that is not own\"); // internal owner\n        require(to != address(0), \"ERC721: transfer to the zero address\");\n\n        _beforeTokenTransfer(from, to, tokenId);\n\n        // Clear approvals from the previous owner\n        _approve(address(0), tokenId);\n\n        _holderTokens[from].remove(tokenId);\n        _holderTokens[to].add(tokenId);\n\n        _tokenOwners.set(tokenId, to);\n\n        emit Transfer(from, to, tokenId);\n    }\n\n    /**\n     * @dev Approve `to` to operate on `tokenId`\n     *\n     * Emits an {Approval} event.\n     */\n    function _approve(address to, uint256 tokenId) internal virtual {\n        _tokenApprovals[tokenId] = to;\n        emit Approval(ERC721.ownerOf(tokenId), to, tokenId); // internal owner\n    }\n\n    /**\n     * @dev Safely transfers `tokenId` token from `from` to `to`, checking first that contract recipients\n     * are aware of the ERC721 protocol to prevent tokens from being forever locked.\n     *\n     * `_data` is additional data, it has no specified format and it is sent in call to `to`.\n     *\n     * This internal function is equivalent to {safeTransferFrom}, and can be used to e.g.\n     * implement alternative mechanisms to perform token transfer, such as signature-based.\n     *\n     * Requirements:\n     *\n     * - `from` cannot be the zero address.\n     * - `to` cannot be the zero address.\n     * - `tokenId` token must exist and be owned by `from`.\n     * - If `to` refers to a smart contract, it must implement {IERC721Receiver-onERC721Received}, which is called upon a safe transfer.\n     *\n     * Emits a {Transfer} event.\n     */\n    function _safeTransfer(address from, address to, uint256 tokenId, bytes memory _data) internal virtual {\n        _transfer(from, to, tokenId);\n        require(_checkOnERC721Received(from, to, tokenId, _data), \"ERC721: transfer to non ERC721Receiver implementer\");\n    }\n\n    /**\n    * @dev Returns the base URI set via {_setBaseURI}. This will be\n    * automatically added as a prefix in {tokenURI} to each token's URI, or\n    * to the token ID if no specific URI is set for that token ID.\n    */\n    function baseURI() public view virtual returns (string memory) {\n        return _baseURI;\n    }\n\n    /**\n     * @dev Internal function to set the base URI for all token IDs. It is\n     * automatically added as a prefix to the value returned in {tokenURI},\n     * or to the token ID if {tokenURI} is empty.\n     */\n    function _setBaseURI(string memory baseURI_) internal virtual {\n        _baseURI = baseURI_;\n    }\n\n}\n\n// main contract to handle NFT generation & management\ncontract myNFT is ERC721, Ownable {\n    using SafeMath for uint256;\n\n    // Maximum NFT to be minted each minting\n    uint256 public MAX_NFT;\n\n    // Maximum NFT can be minted each time\n    uint public constant maxNFTEachMinting = 10;\n\n    // price per NFT in Ether\n    uint256 public constant pricePerNFTinEther = 0.01 ether;\n\n    // price per NFT in token X\n    uint256 public constant pricePerNFTinTokenX = 100;\n\n    // change minting mode: whitelist or free?\n    enum mintingMode{ style1, style2, style3 }\n    mintingMode public mintMode = mintingMode.style1;\n    uint public tungpham = 9;\n\n    // map user address to the number of token can be minted\n    mapping(address => uint256) public _whiteList;\n\n    // todo: change contract address that manage the token we want.\n    address private erc20ContractAddress = 0x61175b02C97c13185ad10de68498b9874a7ce4a1;\n\n    // constructor sets max supply\n    constructor(string memory name, string memory symbol, uint256 maxNftSupply) ERC721(name, symbol) {\n        MAX_NFT = maxNftSupply;\n    }\n\n    //modifier that helps check to see if the user has a specific erc20 token\n    modifier hasTheXToken(address user) {\n        ERC20 erc20instance = ERC20(erc20ContractAddress);\n        uint balance = erc20instance.balanceOf(user);\n        require((balance > 0), \"Qualifications don't meet: token X\");\n        _;\n    }\n\n    // set base URI for the NFT\n    function setBaseURI(string memory baseURI) public onlyOwner {\n        _setBaseURI(baseURI);\n    }\n\n    /**\n     * @dev set minting mode\n     * 1: style 1: style default, send Ether to mint\n     * 2: style 2: whitelist, send Ether to mint\n     * 3: style 3: send a specific erc20 token to mint\n     */\n    function setMintingMode(uint8 mode) external onlyOwner {\n        // TODO: improve when mode doesn't belong to (1,3)\n        mintMode = mintingMode(mode);\n    }\n\n    // Set up white list\n    function setWhiteList(address[] calldata addresses, uint8 numAllowedToMint) external onlyOwner {\n        for (uint256 i = 0; i < addresses.length; i.add(1)) {\n            _whiteList[addresses[i]] = numAllowedToMint;\n        }\n    }\n\n    // Helper check to see how many NFT left for user to mint\n    function numAvailableToMint(address addr) external view returns (uint256) {\n        return _whiteList[addr];\n    }\n\n    // user call this function to approve this contract to spend their ERC20 token\n    function sendERC20ToMint(uint8 numberOfNFTTokens, uint256 amountOfTokenX) external hasTheXToken(_msgSender()) {\n        require((mintMode == mintingMode.style3), \"Unmatched minting style is not allowed\");\n        ERC20 erc20instance = ERC20(erc20ContractAddress);\n        // TODO: verify if msg.sender is identical in the 2 following function (the token sender?)\n        erc20instance.approve(address(this), pricePerNFTinTokenX);\n        erc20instance.transferFrom(_msgSender(), address(this), pricePerNFTinTokenX);\n\n        require(numberOfNFTTokens <= maxNFTEachMinting, \"Can only mint maximally 10 tokens at a time\");\n        require(totalSupply().add(numberOfNFTTokens) <= MAX_NFT, \"token number exceeded\");\n        require(pricePerNFTinTokenX.mul(numberOfNFTTokens) <= amountOfTokenX, \"The amount of token X sent is not suffiicient\");\n\n        for (uint256 i = 0; i < numberOfNFTTokens; i.add(1)) {\n            _safeMint(msg.sender, totalSupply().add(i));\n        }\n    }\n\n    /**\n    * Mints CAN NFT based on whitelist\n    */\n    function whiteListBasedMint(uint8 numberOfNFTTokens) external payable hasTheXToken(_msgSender()) {\n        require((mintMode == mintingMode.style2), \"Unmatched minting style is not allowed\");\n        require(numberOfNFTTokens <= _whiteList[msg.sender], \"Exceeded max available to purchase\");\n        require(totalSupply().add(numberOfNFTTokens) <= MAX_NFT, \"Purchase would exceed max tokens\");\n        require(pricePerNFTinEther.mul(numberOfNFTTokens) <= msg.value, \"Ether value sent is not sufficient\");\n\n        _whiteList[msg.sender] = _whiteList[msg.sender].sub(numberOfNFTTokens);\n        for (uint256 i = 0; i < numberOfNFTTokens; i.add(1)) {\n            _safeMint(msg.sender, totalSupply().add(i));\n        }\n    }\n\n    /**\n    * Mints CAN NFT\n    */\n    function mint(uint numberOfNFTTokens) external payable hasTheXToken(_msgSender()){\n        require((mintMode == mintingMode.style1), \"Unmatched minting style is not allowed\");\n        require(numberOfNFTTokens <= maxNFTEachMinting, \"Can only mint maximally 10 tokens at a time\");\n        require(totalSupply().add(numberOfNFTTokens) <= MAX_NFT, \"token number exceeded\");\n        require(pricePerNFTinEther.mul(numberOfNFTTokens) <= msg.value, \"Ether value sent is not sufficient\");\n\n        for(uint i = 0; i < numberOfNFTTokens; i.add(1)) {\n            uint mintIndex = totalSupply();\n            if (totalSupply() < MAX_NFT) {\n                _safeMint(_msgSender(), mintIndex);\n            }\n        }\n    }\n}",
  "sourcePath": "/Users/leclevietnam/Desktop/work/blockchain/Truffle/CANNFT/contracts/myNFT.sol",
  "compiler": {
    "name": "solc",
    "version": "0.8.11+commit.d7f03943.Emscripten.clang"
  },
  "schemaVersion": "3.4.4",
  "updatedAt": "2022-02-23T02:44:56.141Z",
  "devdoc": {
    "kind": "dev",
    "methods": {
      "approve(address,uint256)": {
        "details": "See {IERC721-approve}."
      },
      "balanceOf(address)": {
        "details": "See {IERC721-balanceOf}."
      },
      "baseURI()": {
        "details": "Returns the base URI set via {_setBaseURI}. This will be automatically added as a prefix in {tokenURI} to each token's URI, or to the token ID if no specific URI is set for that token ID."
      },
      "constructor": {
        "details": "Initializes the contract by setting a `name` and a `symbol` to the token collection."
      },
      "getApproved(uint256)": {
        "details": "See {IERC721-getApproved}."
      },
      "isApprovedForAll(address,address)": {
        "details": "See {IERC721-isApprovedForAll}."
      },
      "name()": {
        "details": "See {IERC721Metadata-name}."
      },
      "ownerOf(uint256)": {
        "details": "See {IERC721-ownerOf}."
      },
      "royaltyInfo(uint256,uint256)": {
        "details": "Returns how much royalty is owed and to whom, based on a sale price that may be denominated in any unit of exchange. The royalty amount is denominated and should be payed in that same unit of exchange."
      },
      "safeTransferFrom(address,address,uint256)": {
        "details": "See {IERC721-safeTransferFrom}."
      },
      "safeTransferFrom(address,address,uint256,bytes)": {
        "details": "See {IERC721-safeTransferFrom}."
      },
      "setApprovalForAll(address,bool)": {
        "details": "See {IERC721-setApprovalForAll}."
      },
      "symbol()": {
        "details": "See {IERC721Metadata-symbol}."
      },
      "tokenByIndex(uint256)": {
        "details": "See {IERC721Enumerable-tokenByIndex}."
      },
      "tokenOfOwnerByIndex(address,uint256)": {
        "details": "See {IERC721Enumerable-tokenOfOwnerByIndex}."
      },
      "tokenURI(uint256)": {
        "details": "See {IERC721Metadata-tokenURI}."
      },
      "totalSupply()": {
        "details": "See {IERC721Enumerable-totalSupply}."
      },
      "transferFrom(address,address,uint256)": {
        "details": "See {IERC721-transferFrom}."
      }
    },
    "version": 1
  },
  "userdoc": {
    "kind": "user",
    "methods": {},
    "version": 1
  }
}