{
  "contractName": "myNFT",
  "abi": [
    {
      "inputs": [
        {
          "internalType": "string",
          "name": "name",
          "type": "string"
        },
        {
          "internalType": "string",
          "name": "symbol",
          "type": "string"
        },
        {
          "internalType": "uint256",
          "name": "maxNftSupply",
          "type": "uint256"
        }
      ],
      "stateMutability": "nonpayable",
      "type": "constructor"
    },
    {
      "anonymous": false,
      "inputs": [
        {
          "indexed": true,
          "internalType": "address",
          "name": "owner",
          "type": "address"
        },
        {
          "indexed": true,
          "internalType": "address",
          "name": "approved",
          "type": "address"
        },
        {
          "indexed": true,
          "internalType": "uint256",
          "name": "tokenId",
          "type": "uint256"
        }
      ],
      "name": "Approval",
      "type": "event"
    },
    {
      "anonymous": false,
      "inputs": [
        {
          "indexed": true,
          "internalType": "address",
          "name": "owner",
          "type": "address"
        },
        {
          "indexed": true,
          "internalType": "address",
          "name": "operator",
          "type": "address"
        },
        {
          "indexed": false,
          "internalType": "bool",
          "name": "approved",
          "type": "bool"
        }
      ],
      "name": "ApprovalForAll",
      "type": "event"
    },
    {
      "anonymous": false,
      "inputs": [
        {
          "indexed": true,
          "internalType": "address",
          "name": "previousOwner",
          "type": "address"
        },
        {
          "indexed": true,
          "internalType": "address",
          "name": "newOwner",
          "type": "address"
        }
      ],
      "name": "OwnershipTransferred",
      "type": "event"
    },
    {
      "anonymous": false,
      "inputs": [
        {
          "indexed": true,
          "internalType": "address",
          "name": "from",
          "type": "address"
        },
        {
          "indexed": true,
          "internalType": "address",
          "name": "to",
          "type": "address"
        },
        {
          "indexed": true,
          "internalType": "uint256",
          "name": "tokenId",
          "type": "uint256"
        }
      ],
      "name": "Transfer",
      "type": "event"
    },
    {
      "inputs": [],
      "name": "MAX_NFT",
      "outputs": [
        {
          "internalType": "uint256",
          "name": "",
          "type": "uint256"
        }
      ],
      "stateMutability": "view",
      "type": "function",
      "constant": true
    },
    {
      "inputs": [
        {
          "internalType": "address",
          "name": "",
          "type": "address"
        }
      ],
      "name": "_whiteList",
      "outputs": [
        {
          "internalType": "uint256",
          "name": "",
          "type": "uint256"
        }
      ],
      "stateMutability": "view",
      "type": "function",
      "constant": true
    },
    {
      "inputs": [
        {
          "internalType": "address",
          "name": "to",
          "type": "address"
        },
        {
          "internalType": "uint256",
          "name": "tokenId",
          "type": "uint256"
        }
      ],
      "name": "approve",
      "outputs": [],
      "stateMutability": "nonpayable",
      "type": "function"
    },
    {
      "inputs": [
        {
          "internalType": "address",
          "name": "owner",
          "type": "address"
        }
      ],
      "name": "balanceOf",
      "outputs": [
        {
          "internalType": "uint256",
          "name": "",
          "type": "uint256"
        }
      ],
      "stateMutability": "view",
      "type": "function",
      "constant": true
    },
    {
      "inputs": [],
      "name": "baseURI",
      "outputs": [
        {
          "internalType": "string",
          "name": "",
          "type": "string"
        }
      ],
      "stateMutability": "view",
      "type": "function",
      "constant": true
    },
    {
      "inputs": [
        {
          "internalType": "uint256",
          "name": "tokenId",
          "type": "uint256"
        }
      ],
      "name": "getApproved",
      "outputs": [
        {
          "internalType": "address",
          "name": "",
          "type": "address"
        }
      ],
      "stateMutability": "view",
      "type": "function",
      "constant": true
    },
    {
      "inputs": [
        {
          "internalType": "address",
          "name": "owner",
          "type": "address"
        },
        {
          "internalType": "address",
          "name": "operator",
          "type": "address"
        }
      ],
      "name": "isApprovedForAll",
      "outputs": [
        {
          "internalType": "bool",
          "name": "",
          "type": "bool"
        }
      ],
      "stateMutability": "view",
      "type": "function",
      "constant": true
    },
    {
      "inputs": [],
      "name": "maxNFTEachMinting",
      "outputs": [
        {
          "internalType": "uint256",
          "name": "",
          "type": "uint256"
        }
      ],
      "stateMutability": "view",
      "type": "function",
      "constant": true
    },
    {
      "inputs": [],
      "name": "mintMode",
      "outputs": [
        {
          "internalType": "enum myNFT.mintingMode",
          "name": "",
          "type": "uint8"
        }
      ],
      "stateMutability": "view",
      "type": "function",
      "constant": true
    },
    {
      "inputs": [],
      "name": "name",
      "outputs": [
        {
          "internalType": "string",
          "name": "",
          "type": "string"
        }
      ],
      "stateMutability": "view",
      "type": "function",
      "constant": true
    },
    {
      "inputs": [],
      "name": "owner",
      "outputs": [
        {
          "internalType": "address",
          "name": "",
          "type": "address"
        }
      ],
      "stateMutability": "view",
      "type": "function",
      "constant": true
    },
    {
      "inputs": [
        {
          "internalType": "uint256",
          "name": "tokenId",
          "type": "uint256"
        }
      ],
      "name": "ownerOf",
      "outputs": [
        {
          "internalType": "address",
          "name": "",
          "type": "address"
        }
      ],
      "stateMutability": "view",
      "type": "function",
      "constant": true
    },
    {
      "inputs": [],
      "name": "pricePerNFTinEther",
      "outputs": [
        {
          "internalType": "uint256",
          "name": "",
          "type": "uint256"
        }
      ],
      "stateMutability": "view",
      "type": "function",
      "constant": true
    },
    {
      "inputs": [],
      "name": "pricePerNFTinTokenX",
      "outputs": [
        {
          "internalType": "uint256",
          "name": "",
          "type": "uint256"
        }
      ],
      "stateMutability": "view",
      "type": "function",
      "constant": true
    },
    {
      "inputs": [],
      "name": "renounceOwnership",
      "outputs": [],
      "stateMutability": "nonpayable",
      "type": "function"
    },
    {
      "inputs": [
        {
          "internalType": "uint256",
          "name": "_tokenId",
          "type": "uint256"
        },
        {
          "internalType": "uint256",
          "name": "_salePrice",
          "type": "uint256"
        }
      ],
      "name": "royaltyInfo",
      "outputs": [
        {
          "internalType": "address",
          "name": "",
          "type": "address"
        },
        {
          "internalType": "uint256",
          "name": "",
          "type": "uint256"
        }
      ],
      "stateMutability": "view",
      "type": "function",
      "constant": true
    },
    {
      "inputs": [
        {
          "internalType": "address",
          "name": "from",
          "type": "address"
        },
        {
          "internalType": "address",
          "name": "to",
          "type": "address"
        },
        {
          "internalType": "uint256",
          "name": "tokenId",
          "type": "uint256"
        }
      ],
      "name": "safeTransferFrom",
      "outputs": [],
      "stateMutability": "nonpayable",
      "type": "function"
    },
    {
      "inputs": [
        {
          "internalType": "address",
          "name": "from",
          "type": "address"
        },
        {
          "internalType": "address",
          "name": "to",
          "type": "address"
        },
        {
          "internalType": "uint256",
          "name": "tokenId",
          "type": "uint256"
        },
        {
          "internalType": "bytes",
          "name": "_data",
          "type": "bytes"
        }
      ],
      "name": "safeTransferFrom",
      "outputs": [],
      "stateMutability": "nonpayable",
      "type": "function"
    },
    {
      "inputs": [
        {
          "internalType": "address",
          "name": "operator",
          "type": "address"
        },
        {
          "internalType": "bool",
          "name": "approved",
          "type": "bool"
        }
      ],
      "name": "setApprovalForAll",
      "outputs": [],
      "stateMutability": "nonpayable",
      "type": "function"
    },
    {
      "inputs": [
        {
          "internalType": "bytes4",
          "name": "interfaceId",
          "type": "bytes4"
        }
      ],
      "name": "supportsInterface",
      "outputs": [
        {
          "internalType": "bool",
          "name": "",
          "type": "bool"
        }
      ],
      "stateMutability": "view",
      "type": "function",
      "constant": true
    },
    {
      "inputs": [],
      "name": "symbol",
      "outputs": [
        {
          "internalType": "string",
          "name": "",
          "type": "string"
        }
      ],
      "stateMutability": "view",
      "type": "function",
      "constant": true
    },
    {
      "inputs": [
        {
          "internalType": "uint256",
          "name": "index",
          "type": "uint256"
        }
      ],
      "name": "tokenByIndex",
      "outputs": [
        {
          "internalType": "uint256",
          "name": "",
          "type": "uint256"
        }
      ],
      "stateMutability": "view",
      "type": "function",
      "constant": true
    },
    {
      "inputs": [
        {
          "internalType": "address",
          "name": "owner",
          "type": "address"
        },
        {
          "internalType": "uint256",
          "name": "index",
          "type": "uint256"
        }
      ],
      "name": "tokenOfOwnerByIndex",
      "outputs": [
        {
          "internalType": "uint256",
          "name": "",
          "type": "uint256"
        }
      ],
      "stateMutability": "view",
      "type": "function",
      "constant": true
    },
    {
      "inputs": [
        {
          "internalType": "uint256",
          "name": "tokenId",
          "type": "uint256"
        }
      ],
      "name": "tokenURI",
      "outputs": [
        {
          "internalType": "string",
          "name": "",
          "type": "string"
        }
      ],
      "stateMutability": "view",
      "type": "function",
      "constant": true
    },
    {
      "inputs": [],
      "name": "totalSupply",
      "outputs": [
        {
          "internalType": "uint256",
          "name": "",
          "type": "uint256"
        }
      ],
      "stateMutability": "view",
      "type": "function",
      "constant": true
    },
    {
      "inputs": [
        {
          "internalType": "address",
          "name": "from",
          "type": "address"
        },
        {
          "internalType": "address",
          "name": "to",
          "type": "address"
        },
        {
          "internalType": "uint256",
          "name": "tokenId",
          "type": "uint256"
        }
      ],
      "name": "transferFrom",
      "outputs": [],
      "stateMutability": "nonpayable",
      "type": "function"
    },
    {
      "inputs": [
        {
          "internalType": "address",
          "name": "newOwner",
          "type": "address"
        }
      ],
      "name": "transferOwnership",
      "outputs": [],
      "stateMutability": "nonpayable",
      "type": "function"
    },
    {
      "inputs": [],
      "name": "tungpham",
      "outputs": [
        {
          "internalType": "uint256",
          "name": "",
          "type": "uint256"
        }
      ],
      "stateMutability": "view",
      "type": "function",
      "constant": true
    },
    {
      "inputs": [
        {
          "internalType": "string",
          "name": "baseURI",
          "type": "string"
        }
      ],
      "name": "setBaseURI",
      "outputs": [],
      "stateMutability": "nonpayable",
      "type": "function"
    },
    {
      "inputs": [
        {
          "internalType": "uint8",
          "name": "mode",
          "type": "uint8"
        }
      ],
      "name": "setMintingMode",
      "outputs": [],
      "stateMutability": "nonpayable",
      "type": "function"
    },
    {
      "inputs": [
        {
          "internalType": "address[]",
          "name": "addresses",
          "type": "address[]"
        },
        {
          "internalType": "uint8",
          "name": "numAllowedToMint",
          "type": "uint8"
        }
      ],
      "name": "setWhiteList",
      "outputs": [],
      "stateMutability": "nonpayable",
      "type": "function"
    },
    {
      "inputs": [
        {
          "internalType": "address",
          "name": "addr",
          "type": "address"
        }
      ],
      "name": "numAvailableToMint",
      "outputs": [
        {
          "internalType": "uint256",
          "name": "",
          "type": "uint256"
        }
      ],
      "stateMutability": "view",
      "type": "function",
      "constant": true
    },
    {
      "inputs": [
        {
          "internalType": "uint8",
          "name": "numberOfNFTTokens",
          "type": "uint8"
        },
        {
          "internalType": "uint256",
          "name": "amountOfTokenX",
          "type": "uint256"
        }
      ],
      "name": "sendERC20ToMint",
      "outputs": [],
      "stateMutability": "nonpayable",
      "type": "function"
    },
    {
      "inputs": [
        {
          "internalType": "uint8",
          "name": "numberOfNFTTokens",
          "type": "uint8"
        }
      ],
      "name": "whiteListBasedMint",
      "outputs": [],
      "stateMutability": "payable",
      "type": "function",
      "payable": true
    },
    {
      "inputs": [
        {
          "internalType": "uint256",
          "name": "numberOfNFTTokens",
          "type": "uint256"
        }
      ],
      "name": "mint",
      "outputs": [],
      "stateMutability": "payable",
      "type": "function",
      "payable": true
    }
  ],
  "bytecode": "0x60806040526000601060006101000a81548160ff021916908360028111156200002d576200002c620002a3565b5b021790555060096011557361175b02c97c13185ad10de68498b9874a7ce4a1601360006101000a81548173ffffffffffffffffffffffffffffffffffffffff021916908373ffffffffffffffffffffffffffffffffffffffff1602179055503480156200009957600080fd5b506040516200579c3803806200579c8339818101604052810190620000bf9190620004aa565b82828160089080519060200190620000d9929190620001f3565b508060099080519060200190620000f2929190620001f3565b50505062000115620001096200012560201b60201c565b6200012d60201b60201c565b80600f81905550505050620005a9565b600033905090565b6000600e60009054906101000a900473ffffffffffffffffffffffffffffffffffffffff16905081600e60006101000a81548173ffffffffffffffffffffffffffffffffffffffff021916908373ffffffffffffffffffffffffffffffffffffffff1602179055508173ffffffffffffffffffffffffffffffffffffffff168173ffffffffffffffffffffffffffffffffffffffff167f8be0079c531659141344cd1fd0a4f28419497f9722a3daafe3b4186f6b6457e060405160405180910390a35050565b828054620002019062000573565b90600052602060002090601f01602090048101928262000225576000855562000271565b82601f106200024057805160ff191683800117855562000271565b8280016001018555821562000271579182015b828111156200027057825182559160200191906001019062000253565b5b50905062000280919062000284565b5090565b5b808211156200029f57600081600090555060010162000285565b5090565b7f4e487b7100000000000000000000000000000000000000000000000000000000600052602160045260246000fd5b6000604051905090565b600080fd5b600080fd5b600080fd5b600080fd5b6000601f19601f8301169050919050565b7f4e487b7100000000000000000000000000000000000000000000000000000000600052604160045260246000fd5b6200033b82620002f0565b810181811067ffffffffffffffff821117156200035d576200035c62000301565b5b80604052505050565b600062000372620002d2565b905062000380828262000330565b919050565b600067ffffffffffffffff821115620003a357620003a262000301565b5b620003ae82620002f0565b9050602081019050919050565b60005b83811015620003db578082015181840152602081019050620003be565b83811115620003eb576000848401525b50505050565b600062000408620004028462000385565b62000366565b905082815260208101848484011115620004275762000426620002eb565b5b62000434848285620003bb565b509392505050565b600082601f830112620004545762000453620002e6565b5b815162000466848260208601620003f1565b91505092915050565b6000819050919050565b62000484816200046f565b81146200049057600080fd5b50565b600081519050620004a48162000479565b92915050565b600080600060608486031215620004c657620004c5620002dc565b5b600084015167ffffffffffffffff811115620004e757620004e6620002e1565b5b620004f5868287016200043c565b935050602084015167ffffffffffffffff811115620005195762000518620002e1565b5b62000527868287016200043c565b92505060406200053a8682870162000493565b9150509250925092565b7f4e487b7100000000000000000000000000000000000000000000000000000000600052602260045260246000fd5b600060028204905060018216806200058c57607f821691505b60208210811415620005a357620005a262000544565b5b50919050565b6151e380620005b96000396000f3fe6080604052600436106102045760003560e01c8063715018a611610118578063c04a2836116100a0578063e985e9c51161006f578063e985e9c514610786578063ef90d15e146107c3578063f2fde38b146107ee578063f6dc6bf814610817578063fcf55cd81461084057610204565b8063c04a2836146106b8578063c87b56dd146106f5578063ce03ca5f14610732578063d7e5366a1461075b57610204565b80638da5cb5b116100e75780638da5cb5b146105f457806395d89b411461061f578063a0712d681461064a578063a22cb46514610666578063b88d4fde1461068f57610204565b8063715018a61461056d578063788c599914610584578063797e4a64146105af5780638072f202146105cb57610204565b80632a55205a1161019b57806355f804b31161016a57806355f804b3146104745780636352211e1461049d5780636c0360eb146104da5780636fdaddf11461050557806370a082311461053057610204565b80632a55205a146103935780632f745c59146103d157806342842e0e1461040e5780634f6ccce71461043757610204565b8063095ea7b3116101d7578063095ea7b3146102eb5780631339ff641461031457806318160ddd1461033f57806323b872dd1461036a57610204565b806301ffc9a71461020957806305d60ffb1461024657806306fdde0314610283578063081812fc146102ae575b600080fd5b34801561021557600080fd5b50610230600480360381019061022b919061367b565b61086b565b60405161023d91906136c3565b60405180910390f35b34801561025257600080fd5b5061026d6004803603810190610268919061373c565b610a1d565b60405161027a9190613782565b60405180910390f35b34801561028f57600080fd5b50610298610a35565b6040516102a59190613836565b60405180910390f35b3480156102ba57600080fd5b506102d560048036038101906102d09190613884565b610ac7565b6040516102e291906138c0565b60405180910390f35b3480156102f757600080fd5b50610312600480360381019061030d91906138db565b610b4c565b005b34801561032057600080fd5b50610329610c64565b6040516103369190613782565b60405180910390f35b34801561034b57600080fd5b50610354610c6f565b6040516103619190613782565b60405180910390f35b34801561037657600080fd5b50610391600480360381019061038c919061391b565b610c80565b005b34801561039f57600080fd5b506103ba60048036038101906103b5919061396e565b610ce0565b6040516103c89291906139ae565b60405180910390f35b3480156103dd57600080fd5b506103f860048036038101906103f391906138db565b610ecb565b6040516104059190613782565b60405180910390f35b34801561041a57600080fd5b506104356004803603810190610430919061391b565b610f26565b005b34801561044357600080fd5b5061045e60048036038101906104599190613884565b610f46565b60405161046b9190613782565b60405180910390f35b34801561048057600080fd5b5061049b60048036038101906104969190613b0c565b610f69565b005b3480156104a957600080fd5b506104c460048036038101906104bf9190613884565b610ff1565b6040516104d191906138c0565b60405180910390f35b3480156104e657600080fd5b506104ef611028565b6040516104fc9190613836565b60405180910390f35b34801561051157600080fd5b5061051a6110ba565b6040516105279190613782565b60405180910390f35b34801561053c57600080fd5b506105576004803603810190610552919061373c565b6110c0565b6040516105649190613782565b60405180910390f35b34801561057957600080fd5b5061058261117f565b005b34801561059057600080fd5b50610599611207565b6040516105a69190613bcc565b60405180910390f35b6105c960048036038101906105c49190613c20565b61121a565b005b3480156105d757600080fd5b506105f260048036038101906105ed9190613c20565b6115af565b005b34801561060057600080fd5b5061060961166d565b60405161061691906138c0565b60405180910390f35b34801561062b57600080fd5b50610634611697565b6040516106419190613836565b60405180910390f35b610664600480360381019061065f9190613884565b611729565b005b34801561067257600080fd5b5061068d60048036038101906106889190613c79565b6119e9565b005b34801561069b57600080fd5b506106b660048036038101906106b19190613d5a565b611b6a565b005b3480156106c457600080fd5b506106df60048036038101906106da919061373c565b611bcc565b6040516106ec9190613782565b60405180910390f35b34801561070157600080fd5b5061071c60048036038101906107179190613884565b611c15565b6040516107299190613836565b60405180910390f35b34801561073e57600080fd5b5061075960048036038101906107549190613ddd565b611d88565b005b34801561076757600080fd5b50610770612172565b60405161077d9190613782565b60405180910390f35b34801561079257600080fd5b506107ad60048036038101906107a89190613e1d565b612177565b6040516107ba91906136c3565b60405180910390f35b3480156107cf57600080fd5b506107d861220b565b6040516107e59190613782565b60405180910390f35b3480156107fa57600080fd5b506108156004803603810190610810919061373c565b612210565b005b34801561082357600080fd5b5061083e60048036038101906108399190613ebd565b612308565b005b34801561084c57600080fd5b50610855612420565b6040516108629190613782565b60405180910390f35b600061087682612426565b806108de57507f2a55205a000000000000000000000000000000000000000000000000000000007bffffffffffffffffffffffffffffffffffffffffffffffffffffffff1916827bffffffffffffffffffffffffffffffffffffffffffffffffffffffff1916145b8061094657507f80ac58cd000000000000000000000000000000000000000000000000000000007bffffffffffffffffffffffffffffffffffffffffffffffffffffffff1916827bffffffffffffffffffffffffffffffffffffffffffffffffffffffff1916145b806109ae57507f5b5e139f000000000000000000000000000000000000000000000000000000007bffffffffffffffffffffffffffffffffffffffffffffffffffffffff1916827bffffffffffffffffffffffffffffffffffffffffffffffffffffffff1916145b80610a1657507f780e9d63000000000000000000000000000000000000000000000000000000007bffffffffffffffffffffffffffffffffffffffffffffffffffffffff1916827bffffffffffffffffffffffffffffffffffffffffffffffffffffffff1916145b9050919050565b60126020528060005260406000206000915090505481565b606060088054610a4490613f4c565b80601f0160208091040260200160405190810160405280929190818152602001828054610a7090613f4c565b8015610abd5780601f10610a9257610100808354040283529160200191610abd565b820191906000526020600020905b815481529060010190602001808311610aa057829003601f168201915b5050505050905090565b6000610ad2826124a0565b610b11576040517f08c379a0000000000000000000000000000000000000000000000000000000008152600401610b0890613ff0565b60405180910390fd5b6006600083815260200190815260200160002060009054906101000a900473ffffffffffffffffffffffffffffffffffffffff169050919050565b6000610b5782610ff1565b90508073ffffffffffffffffffffffffffffffffffffffff168373ffffffffffffffffffffffffffffffffffffffff161415610bc8576040517f08c379a0000000000000000000000000000000000000000000000000000000008152600401610bbf90614082565b60405180910390fd5b8073ffffffffffffffffffffffffffffffffffffffff16610be76124bd565b73ffffffffffffffffffffffffffffffffffffffff161480610c165750610c1581610c106124bd565b612177565b5b610c55576040517f08c379a0000000000000000000000000000000000000000000000000000000008152600401610c4c90614114565b60405180910390fd5b610c5f83836124c5565b505050565b662386f26fc1000081565b6000610c7b600361257e565b905090565b610c91610c8b6124bd565b82612593565b610cd0576040517f08c379a0000000000000000000000000000000000000000000000000000000008152600401610cc7906141a6565b60405180910390fd5b610cdb838383612671565b505050565b6000806000600160008681526020019081526020016000206040518060400160405290816000820160009054906101000a900473ffffffffffffffffffffffffffffffffffffffff1673ffffffffffffffffffffffffffffffffffffffff1673ffffffffffffffffffffffffffffffffffffffff1681526020016000820160149054906101000a90046bffffffffffffffffffffffff166bffffffffffffffffffffffff166bffffffffffffffffffffffff16815250509050600073ffffffffffffffffffffffffffffffffffffffff16816000015173ffffffffffffffffffffffffffffffffffffffff161415610e765760006040518060400160405290816000820160009054906101000a900473ffffffffffffffffffffffffffffffffffffffff1673ffffffffffffffffffffffffffffffffffffffff1673ffffffffffffffffffffffffffffffffffffffff1681526020016000820160149054906101000a90046bffffffffffffffffffffffff166bffffffffffffffffffffffff166bffffffffffffffffffffffff168152505090505b6000610e80612888565b6bffffffffffffffffffffffff1682602001516bffffffffffffffffffffffff1686610eac91906141f5565b610eb6919061427e565b90508160000151819350935050509250929050565b6000610f1e82600260008673ffffffffffffffffffffffffffffffffffffffff1673ffffffffffffffffffffffffffffffffffffffff16815260200190815260200160002061289290919063ffffffff16565b905092915050565b610f4183838360405180602001604052806000815250611b6a565b505050565b600080610f5d8360036128ac90919063ffffffff16565b50905080915050919050565b610f716124bd565b73ffffffffffffffffffffffffffffffffffffffff16610f8f61166d565b73ffffffffffffffffffffffffffffffffffffffff1614610fe5576040517f08c379a0000000000000000000000000000000000000000000000000000000008152600401610fdc906142fb565b60405180910390fd5b610fee816128d8565b50565b6000611021826040518060600160405280602981526020016151856029913960036128f29092919063ffffffff16565b9050919050565b6060600b805461103790613f4c565b80601f016020809104026020016040519081016040528092919081815260200182805461106390613f4c565b80156110b05780601f10611085576101008083540402835291602001916110b0565b820191906000526020600020905b81548152906001019060200180831161109357829003601f168201915b5050505050905090565b600f5481565b60008073ffffffffffffffffffffffffffffffffffffffff168273ffffffffffffffffffffffffffffffffffffffff161415611131576040517f08c379a00000000000000000000000000000000000000000000000000000000081526004016111289061438d565b60405180910390fd5b611178600260008473ffffffffffffffffffffffffffffffffffffffff1673ffffffffffffffffffffffffffffffffffffffff168152602001908152602001600020612911565b9050919050565b6111876124bd565b73ffffffffffffffffffffffffffffffffffffffff166111a561166d565b73ffffffffffffffffffffffffffffffffffffffff16146111fb576040517f08c379a00000000000000000000000000000000000000000000000000000000081526004016111f2906142fb565b60405180910390fd5b6112056000612926565b565b601060009054906101000a900460ff1681565b6112226124bd565b6000601360009054906101000a900473ffffffffffffffffffffffffffffffffffffffff16905060008173ffffffffffffffffffffffffffffffffffffffff166370a08231846040518263ffffffff1660e01b815260040161128491906138c0565b602060405180830381865afa1580156112a1573d6000803e3d6000fd5b505050506040513d601f19601f820116820180604052508101906112c591906143c2565b90506000811161130a576040517f08c379a000000000000000000000000000000000000000000000000000000000815260040161130190614461565b60405180910390fd5b6001600281111561131e5761131d613b55565b5b601060009054906101000a900460ff1660028111156113405761133f613b55565b5b14611380576040517f08c379a0000000000000000000000000000000000000000000000000000000008152600401611377906144f3565b60405180910390fd5b601260003373ffffffffffffffffffffffffffffffffffffffff1673ffffffffffffffffffffffffffffffffffffffff168152602001908152602001600020548460ff161115611405576040517f08c379a00000000000000000000000000000000000000000000000000000000081526004016113fc90614585565b60405180910390fd5b600f546114258560ff16611417610c6f565b6129ec90919063ffffffff16565b1115611466576040517f08c379a000000000000000000000000000000000000000000000000000000000815260040161145d906145f1565b60405180910390fd5b346114848560ff16662386f26fc10000612a0290919063ffffffff16565b11156114c5576040517f08c379a00000000000000000000000000000000000000000000000000000000081526004016114bc90614683565b60405180910390fd5b61151a8460ff16601260003373ffffffffffffffffffffffffffffffffffffffff1673ffffffffffffffffffffffffffffffffffffffff16815260200190815260200160002054612a1890919063ffffffff16565b601260003373ffffffffffffffffffffffffffffffffffffffff1673ffffffffffffffffffffffffffffffffffffffff1681526020019081526020016000208190555060005b8460ff168110156115a85761158e336115898361157b610c6f565b6129ec90919063ffffffff16565b612a2e565b6115a26001826129ec90919063ffffffff16565b50611560565b5050505050565b6115b76124bd565b73ffffffffffffffffffffffffffffffffffffffff166115d561166d565b73ffffffffffffffffffffffffffffffffffffffff161461162b576040517f08c379a0000000000000000000000000000000000000000000000000000000008152600401611622906142fb565b60405180910390fd5b8060ff16600281111561164157611640613b55565b5b601060006101000a81548160ff0219169083600281111561166557611664613b55565b5b021790555050565b6000600e60009054906101000a900473ffffffffffffffffffffffffffffffffffffffff16905090565b6060600980546116a690613f4c565b80601f01602080910402602001604051908101604052809291908181526020018280546116d290613f4c565b801561171f5780601f106116f45761010080835404028352916020019161171f565b820191906000526020600020905b81548152906001019060200180831161170257829003601f168201915b5050505050905090565b6117316124bd565b6000601360009054906101000a900473ffffffffffffffffffffffffffffffffffffffff16905060008173ffffffffffffffffffffffffffffffffffffffff166370a08231846040518263ffffffff1660e01b815260040161179391906138c0565b602060405180830381865afa1580156117b0573d6000803e3d6000fd5b505050506040513d601f19601f820116820180604052508101906117d491906143c2565b905060008111611819576040517f08c379a000000000000000000000000000000000000000000000000000000000815260040161181090614461565b60405180910390fd5b6000600281111561182d5761182c613b55565b5b601060009054906101000a900460ff16600281111561184f5761184e613b55565b5b1461188f576040517f08c379a0000000000000000000000000000000000000000000000000000000008152600401611886906144f3565b60405180910390fd5b600a8411156118d3576040517f08c379a00000000000000000000000000000000000000000000000000000000081526004016118ca90614715565b60405180910390fd5b600f546118f0856118e2610c6f565b6129ec90919063ffffffff16565b1115611931576040517f08c379a000000000000000000000000000000000000000000000000000000000815260040161192890614781565b60405180910390fd5b3461194c85662386f26fc10000612a0290919063ffffffff16565b111561198d576040517f08c379a000000000000000000000000000000000000000000000000000000000815260040161198490614683565b60405180910390fd5b60005b848110156119e25760006119a2610c6f565b9050600f546119af610c6f565b10156119c7576119c66119c06124bd565b82612a2e565b5b506119dc6001826129ec90919063ffffffff16565b50611990565b5050505050565b6119f16124bd565b73ffffffffffffffffffffffffffffffffffffffff168273ffffffffffffffffffffffffffffffffffffffff161415611a5f576040517f08c379a0000000000000000000000000000000000000000000000000000000008152600401611a56906147ed565b60405180910390fd5b8060076000611a6c6124bd565b73ffffffffffffffffffffffffffffffffffffffff1673ffffffffffffffffffffffffffffffffffffffff16815260200190815260200160002060008473ffffffffffffffffffffffffffffffffffffffff1673ffffffffffffffffffffffffffffffffffffffff16815260200190815260200160002060006101000a81548160ff0219169083151502179055508173ffffffffffffffffffffffffffffffffffffffff16611b196124bd565b73ffffffffffffffffffffffffffffffffffffffff167f17307eab39ab6107e8899845ad3d59bd9653f200f220920489ca2b5937696c3183604051611b5e91906136c3565b60405180910390a35050565b611b7b611b756124bd565b83612593565b611bba576040517f08c379a0000000000000000000000000000000000000000000000000000000008152600401611bb1906141a6565b60405180910390fd5b611bc684848484612a4c565b50505050565b6000601260008373ffffffffffffffffffffffffffffffffffffffff1673ffffffffffffffffffffffffffffffffffffffff168152602001908152602001600020549050919050565b6060611c20826124a0565b611c5f576040517f08c379a0000000000000000000000000000000000000000000000000000000008152600401611c569061487f565b60405180910390fd5b6000600a60008481526020019081526020016000208054611c7f90613f4c565b80601f0160208091040260200160405190810160405280929190818152602001828054611cab90613f4c565b8015611cf85780601f10611ccd57610100808354040283529160200191611cf8565b820191906000526020600020905b815481529060010190602001808311611cdb57829003601f168201915b505050505090506000611d09611028565b9050600081511415611d1f578192505050611d83565b600082511115611d54578082604051602001611d3c9291906148db565b60405160208183030381529060405292505050611d83565b80611d5e85612aa8565b604051602001611d6f9291906148db565b604051602081830303815290604052925050505b919050565b611d906124bd565b6000601360009054906101000a900473ffffffffffffffffffffffffffffffffffffffff16905060008173ffffffffffffffffffffffffffffffffffffffff166370a08231846040518263ffffffff1660e01b8152600401611df291906138c0565b602060405180830381865afa158015611e0f573d6000803e3d6000fd5b505050506040513d601f19601f82011682018060405250810190611e3391906143c2565b905060008111611e78576040517f08c379a0000000000000000000000000000000000000000000000000000000008152600401611e6f90614461565b60405180910390fd5b600280811115611e8b57611e8a613b55565b5b601060009054906101000a900460ff166002811115611ead57611eac613b55565b5b14611eed576040517f08c379a0000000000000000000000000000000000000000000000000000000008152600401611ee4906144f3565b60405180910390fd5b6000601360009054906101000a900473ffffffffffffffffffffffffffffffffffffffff1690508073ffffffffffffffffffffffffffffffffffffffff1663095ea7b33060646040518363ffffffff1660e01b8152600401611f509291906139ae565b6020604051808303816000875af1158015611f6f573d6000803e3d6000fd5b505050506040513d601f19601f82011682018060405250810190611f939190614914565b508073ffffffffffffffffffffffffffffffffffffffff166323b872dd611fb86124bd565b3060646040518463ffffffff1660e01b8152600401611fd993929190614941565b6020604051808303816000875af1158015611ff8573d6000803e3d6000fd5b505050506040513d601f19601f8201168201806040525081019061201c9190614914565b50600a8660ff161115612064576040517f08c379a000000000000000000000000000000000000000000000000000000000815260040161205b90614715565b60405180910390fd5b600f546120848760ff16612076610c6f565b6129ec90919063ffffffff16565b11156120c5576040517f08c379a00000000000000000000000000000000000000000000000000000000081526004016120bc90614781565b60405180910390fd5b846120dd8760ff166064612a0290919063ffffffff16565b111561211e576040517f08c379a0000000000000000000000000000000000000000000000000000000008152600401612115906149ea565b60405180910390fd5b60005b8660ff168110156121695761214f3361214a8361213c610c6f565b6129ec90919063ffffffff16565b612a2e565b6121636001826129ec90919063ffffffff16565b50612121565b50505050505050565b600a81565b6000600760008473ffffffffffffffffffffffffffffffffffffffff1673ffffffffffffffffffffffffffffffffffffffff16815260200190815260200160002060008373ffffffffffffffffffffffffffffffffffffffff1673ffffffffffffffffffffffffffffffffffffffff16815260200190815260200160002060009054906101000a900460ff16905092915050565b606481565b6122186124bd565b73ffffffffffffffffffffffffffffffffffffffff1661223661166d565b73ffffffffffffffffffffffffffffffffffffffff161461228c576040517f08c379a0000000000000000000000000000000000000000000000000000000008152600401612283906142fb565b60405180910390fd5b600073ffffffffffffffffffffffffffffffffffffffff168173ffffffffffffffffffffffffffffffffffffffff1614156122fc576040517f08c379a00000000000000000000000000000000000000000000000000000000081526004016122f390614a7c565b60405180910390fd5b61230581612926565b50565b6123106124bd565b73ffffffffffffffffffffffffffffffffffffffff1661232e61166d565b73ffffffffffffffffffffffffffffffffffffffff1614612384576040517f08c379a000000000000000000000000000000000000000000000000000000000815260040161237b906142fb565b60405180910390fd5b60005b8383905081101561241a578160ff16601260008686858181106123ad576123ac614a9c565b5b90506020020160208101906123c2919061373c565b73ffffffffffffffffffffffffffffffffffffffff1673ffffffffffffffffffffffffffffffffffffffff168152602001908152602001600020819055506124146001826129ec90919063ffffffff16565b50612387565b50505050565b60115481565b60007f2a55205a000000000000000000000000000000000000000000000000000000007bffffffffffffffffffffffffffffffffffffffffffffffffffffffff1916827bffffffffffffffffffffffffffffffffffffffffffffffffffffffff19161480612499575061249882612c09565b5b9050919050565b60006124b6826003612c7390919063ffffffff16565b9050919050565b600033905090565b816006600083815260200190815260200160002060006101000a81548173ffffffffffffffffffffffffffffffffffffffff021916908373ffffffffffffffffffffffffffffffffffffffff160217905550808273ffffffffffffffffffffffffffffffffffffffff1661253883610ff1565b73ffffffffffffffffffffffffffffffffffffffff167f8c5be1e5ebec7d5bd14f71427d1e84f3dd0314c0f7b2291e5b200ac8c7c3b92560405160405180910390a45050565b600061258c82600001612c8d565b9050919050565b600061259e826124a0565b6125dd576040517f08c379a00000000000000000000000000000000000000000000000000000000081526004016125d490614b3d565b60405180910390fd5b60006125e883610ff1565b90508073ffffffffffffffffffffffffffffffffffffffff168473ffffffffffffffffffffffffffffffffffffffff16148061265757508373ffffffffffffffffffffffffffffffffffffffff1661263f84610ac7565b73ffffffffffffffffffffffffffffffffffffffff16145b8061266857506126678185612177565b5b91505092915050565b8273ffffffffffffffffffffffffffffffffffffffff1661269182610ff1565b73ffffffffffffffffffffffffffffffffffffffff16146126e7576040517f08c379a00000000000000000000000000000000000000000000000000000000081526004016126de90614bcf565b60405180910390fd5b600073ffffffffffffffffffffffffffffffffffffffff168273ffffffffffffffffffffffffffffffffffffffff161415612757576040517f08c379a000000000000000000000000000000000000000000000000000000000815260040161274e90614c61565b60405180910390fd5b612762838383612ca2565b61276d6000826124c5565b6127be81600260008673ffffffffffffffffffffffffffffffffffffffff1673ffffffffffffffffffffffffffffffffffffffff168152602001908152602001600020612ca790919063ffffffff16565b5061281081600260008573ffffffffffffffffffffffffffffffffffffffff1673ffffffffffffffffffffffffffffffffffffffff168152602001908152602001600020612cc190919063ffffffff16565b5061282781836003612cdb9092919063ffffffff16565b50808273ffffffffffffffffffffffffffffffffffffffff168473ffffffffffffffffffffffffffffffffffffffff167fddf252ad1be2c89b69c2b068fc378daa952ba7f163c4a11628f55a4df523b3ef60405160405180910390a4505050565b6000612710905090565b60006128a18360000183612d10565b60001c905092915050565b6000806000806128bf8660000186612d3b565b915091508160001c8160001c9350935050509250929050565b80600b90805190602001906128ee92919061356c565b5050565b6000612905846000018460001b84612d7b565b60001c90509392505050565b600061291f82600001612dfc565b9050919050565b6000600e60009054906101000a900473ffffffffffffffffffffffffffffffffffffffff16905081600e60006101000a81548173ffffffffffffffffffffffffffffffffffffffff021916908373ffffffffffffffffffffffffffffffffffffffff1602179055508173ffffffffffffffffffffffffffffffffffffffff168173ffffffffffffffffffffffffffffffffffffffff167f8be0079c531659141344cd1fd0a4f28419497f9722a3daafe3b4186f6b6457e060405160405180910390a35050565b600081836129fa9190614c81565b905092915050565b60008183612a1091906141f5565b905092915050565b60008183612a269190614cd7565b905092915050565b612a48828260405180602001604052806000815250612e0d565b5050565b612a57848484612671565b612a6384848484612e68565b612aa2576040517f08c379a0000000000000000000000000000000000000000000000000000000008152600401612a9990614d7d565b60405180910390fd5b50505050565b60606000821415612af0576040518060400160405280600181526020017f30000000000000000000000000000000000000000000000000000000000000008152509050612c04565b600082905060005b60008214612b22578080612b0b90614d9d565b915050600a82612b1b919061427e565b9150612af8565b60008167ffffffffffffffff811115612b3e57612b3d6139e1565b5b6040519080825280601f01601f191660200182016040528015612b705781602001600182028036833780820191505090505b5090505b60008514612bfd57600182612b899190614cd7565b9150600a85612b989190614de6565b6030612ba49190614c81565b60f81b818381518110612bba57612bb9614a9c565b5b60200101907effffffffffffffffffffffffffffffffffffffffffffffffffffffffffffff1916908160001a905350600a85612bf6919061427e565b9450612b74565b8093505050505b919050565b60007f01ffc9a7000000000000000000000000000000000000000000000000000000007bffffffffffffffffffffffffffffffffffffffffffffffffffffffff1916827bffffffffffffffffffffffffffffffffffffffffffffffffffffffff1916149050919050565b6000612c85836000018360001b612fcc565b905092915050565b6000612c9b82600001612fec565b9050919050565b505050565b6000612cb9836000018360001b613001565b905092915050565b6000612cd3836000018360001b613115565b905092915050565b6000612d07846000018460001b8473ffffffffffffffffffffffffffffffffffffffff1660001b613185565b90509392505050565b6000826000018281548110612d2857612d27614a9c565b5b9060005260206000200154905092915050565b6000806000612d5684866000016131c090919063ffffffff16565b9050808560020160008381526020019081526020016000205492509250509250929050565b6000808460020160008581526020019081526020016000205490506000801b81141580612dae5750612dad8585612fcc565b5b8390612df0576040517f08c379a0000000000000000000000000000000000000000000000000000000008152600401612de79190613836565b60405180910390fd5b50809150509392505050565b600081600001805490509050919050565b612e1783836131d7565b612e246000848484612e68565b612e63576040517f08c379a0000000000000000000000000000000000000000000000000000000008152600401612e5a90614d7d565b60405180910390fd5b505050565b6000612e898473ffffffffffffffffffffffffffffffffffffffff16613365565b612e965760019050612fc4565b6000612f5d63150b7a0260e01b612eab6124bd565b888787604051602401612ec19493929190614e6c565b604051602081830303815290604052907bffffffffffffffffffffffffffffffffffffffffffffffffffffffff19166020820180517bffffffffffffffffffffffffffffffffffffffffffffffffffffffff8381831617835250505050604051806060016040528060328152602001615153603291398773ffffffffffffffffffffffffffffffffffffffff166133889092919063ffffffff16565b9050600081806020019051810190612f759190614ecd565b905063150b7a0260e01b7bffffffffffffffffffffffffffffffffffffffffffffffffffffffff1916817bffffffffffffffffffffffffffffffffffffffffffffffffffffffff191614925050505b949350505050565b6000612fe482846000016133a090919063ffffffff16565b905092915050565b6000612ffa82600001612dfc565b9050919050565b600080836001016000848152602001908152602001600020549050600081146131095760006001826130339190614cd7565b905060006001866000018054905061304b9190614cd7565b90508181146130ba57600086600001828154811061306c5761306b614a9c565b5b90600052602060002001549050808760000184815481106130905761308f614a9c565b5b90600052602060002001819055508387600101600083815260200190815260200160002081905550505b856000018054806130ce576130cd614efa565b5b60019003818190600052602060002001600090559055856001016000868152602001908152602001600020600090556001935050505061310f565b60009150505b92915050565b600061312183836133b7565b61317a57826000018290806001815401808255809150506001900390600052602060002001600090919091909150558260000180549050836001016000848152602001908152602001600020819055506001905061317f565b600090505b92915050565b600081846002016000858152602001908152602001600020819055506131b783856000016133da90919063ffffffff16565b90509392505050565b60006131cf8360000183612d10565b905092915050565b600073ffffffffffffffffffffffffffffffffffffffff168273ffffffffffffffffffffffffffffffffffffffff161415613247576040517f08c379a000000000000000000000000000000000000000000000000000000000815260040161323e90614f75565b60405180910390fd5b613250816124a0565b15613290576040517f08c379a000000000000000000000000000000000000000000000000000000000815260040161328790614fe1565b60405180910390fd5b61329c60008383612ca2565b6132ed81600260008573ffffffffffffffffffffffffffffffffffffffff1673ffffffffffffffffffffffffffffffffffffffff168152602001908152602001600020612cc190919063ffffffff16565b5061330481836003612cdb9092919063ffffffff16565b50808273ffffffffffffffffffffffffffffffffffffffff16600073ffffffffffffffffffffffffffffffffffffffff167fddf252ad1be2c89b69c2b068fc378daa952ba7f163c4a11628f55a4df523b3ef60405160405180910390a45050565b6000808273ffffffffffffffffffffffffffffffffffffffff163b119050919050565b606061339784846000856133f1565b90509392505050565b60006133af83600001836133b7565b905092915050565b600080836001016000848152602001908152602001600020541415905092915050565b60006133e98360000183613115565b905092915050565b606082471015613436576040517f08c379a000000000000000000000000000000000000000000000000000000000815260040161342d90615073565b60405180910390fd5b61343f85613365565b61347e576040517f08c379a0000000000000000000000000000000000000000000000000000000008152600401613475906150df565b60405180910390fd5b6000808673ffffffffffffffffffffffffffffffffffffffff1685876040516134a7919061513b565b60006040518083038185875af1925050503d80600081146134e4576040519150601f19603f3d011682016040523d82523d6000602084013e6134e9565b606091505b50915091506134f9828286613505565b92505050949350505050565b6060831561351557829050613565565b6000835111156135285782518084602001fd5b816040517f08c379a000000000000000000000000000000000000000000000000000000000815260040161355c9190613836565b60405180910390fd5b9392505050565b82805461357890613f4c565b90600052602060002090601f01602090048101928261359a57600085556135e1565b82601f106135b357805160ff19168380011785556135e1565b828001600101855582156135e1579182015b828111156135e05782518255916020019190600101906135c5565b5b5090506135ee91906135f2565b5090565b5b8082111561360b5760008160009055506001016135f3565b5090565b6000604051905090565b600080fd5b600080fd5b60007fffffffff0000000000000000000000000000000000000000000000000000000082169050919050565b61365881613623565b811461366357600080fd5b50565b6000813590506136758161364f565b92915050565b60006020828403121561369157613690613619565b5b600061369f84828501613666565b91505092915050565b60008115159050919050565b6136bd816136a8565b82525050565b60006020820190506136d860008301846136b4565b92915050565b600073ffffffffffffffffffffffffffffffffffffffff82169050919050565b6000613709826136de565b9050919050565b613719816136fe565b811461372457600080fd5b50565b60008135905061373681613710565b92915050565b60006020828403121561375257613751613619565b5b600061376084828501613727565b91505092915050565b6000819050919050565b61377c81613769565b82525050565b60006020820190506137976000830184613773565b92915050565b600081519050919050565b600082825260208201905092915050565b60005b838110156137d75780820151818401526020810190506137bc565b838111156137e6576000848401525b50505050565b6000601f19601f8301169050919050565b60006138088261379d565b61381281856137a8565b93506138228185602086016137b9565b61382b816137ec565b840191505092915050565b6000602082019050818103600083015261385081846137fd565b905092915050565b61386181613769565b811461386c57600080fd5b50565b60008135905061387e81613858565b92915050565b60006020828403121561389a57613899613619565b5b60006138a88482850161386f565b91505092915050565b6138ba816136fe565b82525050565b60006020820190506138d560008301846138b1565b92915050565b600080604083850312156138f2576138f1613619565b5b600061390085828601613727565b92505060206139118582860161386f565b9150509250929050565b60008060006060848603121561393457613933613619565b5b600061394286828701613727565b935050602061395386828701613727565b92505060406139648682870161386f565b9150509250925092565b6000806040838503121561398557613984613619565b5b60006139938582860161386f565b92505060206139a48582860161386f565b9150509250929050565b60006040820190506139c360008301856138b1565b6139d06020830184613773565b9392505050565b600080fd5b600080fd5b7f4e487b7100000000000000000000000000000000000000000000000000000000600052604160045260246000fd5b613a19826137ec565b810181811067ffffffffffffffff82111715613a3857613a376139e1565b5b80604052505050565b6000613a4b61360f565b9050613a578282613a10565b919050565b600067ffffffffffffffff821115613a7757613a766139e1565b5b613a80826137ec565b9050602081019050919050565b82818337600083830152505050565b6000613aaf613aaa84613a5c565b613a41565b905082815260208101848484011115613acb57613aca6139dc565b5b613ad6848285613a8d565b509392505050565b600082601f830112613af357613af26139d7565b5b8135613b03848260208601613a9c565b91505092915050565b600060208284031215613b2257613b21613619565b5b600082013567ffffffffffffffff811115613b4057613b3f61361e565b5b613b4c84828501613ade565b91505092915050565b7f4e487b7100000000000000000000000000000000000000000000000000000000600052602160045260246000fd5b60038110613b9557613b94613b55565b5b50565b6000819050613ba682613b84565b919050565b6000613bb682613b98565b9050919050565b613bc681613bab565b82525050565b6000602082019050613be16000830184613bbd565b92915050565b600060ff82169050919050565b613bfd81613be7565b8114613c0857600080fd5b50565b600081359050613c1a81613bf4565b92915050565b600060208284031215613c3657613c35613619565b5b6000613c4484828501613c0b565b91505092915050565b613c56816136a8565b8114613c6157600080fd5b50565b600081359050613c7381613c4d565b92915050565b60008060408385031215613c9057613c8f613619565b5b6000613c9e85828601613727565b9250506020613caf85828601613c64565b9150509250929050565b600067ffffffffffffffff821115613cd457613cd36139e1565b5b613cdd826137ec565b9050602081019050919050565b6000613cfd613cf884613cb9565b613a41565b905082815260208101848484011115613d1957613d186139dc565b5b613d24848285613a8d565b509392505050565b600082601f830112613d4157613d406139d7565b5b8135613d51848260208601613cea565b91505092915050565b60008060008060808587031215613d7457613d73613619565b5b6000613d8287828801613727565b9450506020613d9387828801613727565b9350506040613da48782880161386f565b925050606085013567ffffffffffffffff811115613dc557613dc461361e565b5b613dd187828801613d2c565b91505092959194509250565b60008060408385031215613df457613df3613619565b5b6000613e0285828601613c0b565b9250506020613e138582860161386f565b9150509250929050565b60008060408385031215613e3457613e33613619565b5b6000613e4285828601613727565b9250506020613e5385828601613727565b9150509250929050565b600080fd5b600080fd5b60008083601f840112613e7d57613e7c6139d7565b5b8235905067ffffffffffffffff811115613e9a57613e99613e5d565b5b602083019150836020820283011115613eb657613eb5613e62565b5b9250929050565b600080600060408486031215613ed657613ed5613619565b5b600084013567ffffffffffffffff811115613ef457613ef361361e565b5b613f0086828701613e67565b93509350506020613f1386828701613c0b565b9150509250925092565b7f4e487b7100000000000000000000000000000000000000000000000000000000600052602260045260246000fd5b60006002820490506001821680613f6457607f821691505b60208210811415613f7857613f77613f1d565b5b50919050565b7f4552433732313a20617070726f76656420717565727920666f72206e6f6e657860008201527f697374656e7420746f6b656e0000000000000000000000000000000000000000602082015250565b6000613fda602c836137a8565b9150613fe582613f7e565b604082019050919050565b6000602082019050818103600083015261400981613fcd565b9050919050565b7f4552433732313a20617070726f76616c20746f2063757272656e74206f776e6560008201527f7200000000000000000000000000000000000000000000000000000000000000602082015250565b600061406c6021836137a8565b915061407782614010565b604082019050919050565b6000602082019050818103600083015261409b8161405f565b9050919050565b7f4552433732313a20617070726f76652063616c6c6572206973206e6f74206f7760008201527f6e6572206e6f7220617070726f76656420666f7220616c6c0000000000000000602082015250565b60006140fe6038836137a8565b9150614109826140a2565b604082019050919050565b6000602082019050818103600083015261412d816140f1565b9050919050565b7f4552433732313a207472616e736665722063616c6c6572206973206e6f74206f60008201527f776e6572206e6f7220617070726f766564000000000000000000000000000000602082015250565b60006141906031836137a8565b915061419b82614134565b604082019050919050565b600060208201905081810360008301526141bf81614183565b9050919050565b7f4e487b7100000000000000000000000000000000000000000000000000000000600052601160045260246000fd5b600061420082613769565b915061420b83613769565b9250817fffffffffffffffffffffffffffffffffffffffffffffffffffffffffffffffff0483118215151615614244576142436141c6565b5b828202905092915050565b7f4e487b7100000000000000000000000000000000000000000000000000000000600052601260045260246000fd5b600061428982613769565b915061429483613769565b9250826142a4576142a361424f565b5b828204905092915050565b7f4f776e61626c653a2063616c6c6572206973206e6f7420746865206f776e6572600082015250565b60006142e56020836137a8565b91506142f0826142af565b602082019050919050565b60006020820190508181036000830152614314816142d8565b9050919050565b7f4552433732313a2062616c616e636520717565727920666f7220746865207a6560008201527f726f206164647265737300000000000000000000000000000000000000000000602082015250565b6000614377602a836137a8565b91506143828261431b565b604082019050919050565b600060208201905081810360008301526143a68161436a565b9050919050565b6000815190506143bc81613858565b92915050565b6000602082840312156143d8576143d7613619565b5b60006143e6848285016143ad565b91505092915050565b7f5175616c696669636174696f6e7320646f6e2774206d6565743a20746f6b656e60008201527f2058000000000000000000000000000000000000000000000000000000000000602082015250565b600061444b6022836137a8565b9150614456826143ef565b604082019050919050565b6000602082019050818103600083015261447a8161443e565b9050919050565b7f556e6d617463686564206d696e74696e67207374796c65206973206e6f74206160008201527f6c6c6f7765640000000000000000000000000000000000000000000000000000602082015250565b60006144dd6026836137a8565b91506144e882614481565b604082019050919050565b6000602082019050818103600083015261450c816144d0565b9050919050565b7f4578636565646564206d617820617661696c61626c6520746f2070757263686160008201527f7365000000000000000000000000000000000000000000000000000000000000602082015250565b600061456f6022836137a8565b915061457a82614513565b604082019050919050565b6000602082019050818103600083015261459e81614562565b9050919050565b7f507572636861736520776f756c6420657863656564206d617820746f6b656e73600082015250565b60006145db6020836137a8565b91506145e6826145a5565b602082019050919050565b6000602082019050818103600083015261460a816145ce565b9050919050565b7f45746865722076616c75652073656e74206973206e6f7420737566666963696560008201527f6e74000000000000000000000000000000000000000000000000000000000000602082015250565b600061466d6022836137a8565b915061467882614611565b604082019050919050565b6000602082019050818103600083015261469c81614660565b9050919050565b7f43616e206f6e6c79206d696e74206d6178696d616c6c7920313020746f6b656e60008201527f7320617420612074696d65000000000000000000000000000000000000000000602082015250565b60006146ff602b836137a8565b915061470a826146a3565b604082019050919050565b6000602082019050818103600083015261472e816146f2565b9050919050565b7f746f6b656e206e756d6265722065786365656465640000000000000000000000600082015250565b600061476b6015836137a8565b915061477682614735565b602082019050919050565b6000602082019050818103600083015261479a8161475e565b9050919050565b7f4552433732313a20617070726f766520746f2063616c6c657200000000000000600082015250565b60006147d76019836137a8565b91506147e2826147a1565b602082019050919050565b60006020820190508181036000830152614806816147ca565b9050919050565b7f4552433732314d657461646174613a2055524920717565727920666f72206e6f60008201527f6e6578697374656e7420746f6b656e0000000000000000000000000000000000602082015250565b6000614869602f836137a8565b91506148748261480d565b604082019050919050565b600060208201905081810360008301526148988161485c565b9050919050565b600081905092915050565b60006148b58261379d565b6148bf818561489f565b93506148cf8185602086016137b9565b80840191505092915050565b60006148e782856148aa565b91506148f382846148aa565b91508190509392505050565b60008151905061490e81613c4d565b92915050565b60006020828403121561492a57614929613619565b5b6000614938848285016148ff565b91505092915050565b600060608201905061495660008301866138b1565b61496360208301856138b1565b6149706040830184613773565b949350505050565b7f54686520616d6f756e74206f6620746f6b656e20582073656e74206973206e6f60008201527f74207375666669696369656e7400000000000000000000000000000000000000602082015250565b60006149d4602d836137a8565b91506149df82614978565b604082019050919050565b60006020820190508181036000830152614a03816149c7565b9050919050565b7f4f776e61626c653a206e6577206f776e657220697320746865207a65726f206160008201527f6464726573730000000000000000000000000000000000000000000000000000602082015250565b6000614a666026836137a8565b9150614a7182614a0a565b604082019050919050565b60006020820190508181036000830152614a9581614a59565b9050919050565b7f4e487b7100000000000000000000000000000000000000000000000000000000600052603260045260246000fd5b7f4552433732313a206f70657261746f7220717565727920666f72206e6f6e657860008201527f697374656e7420746f6b656e0000000000000000000000000000000000000000602082015250565b6000614b27602c836137a8565b9150614b3282614acb565b604082019050919050565b60006020820190508181036000830152614b5681614b1a565b9050919050565b7f4552433732313a207472616e73666572206f6620746f6b656e2074686174206960008201527f73206e6f74206f776e0000000000000000000000000000000000000000000000602082015250565b6000614bb96029836137a8565b9150614bc482614b5d565b604082019050919050565b60006020820190508181036000830152614be881614bac565b9050919050565b7f4552433732313a207472616e7366657220746f20746865207a65726f2061646460008201527f7265737300000000000000000000000000000000000000000000000000000000602082015250565b6000614c4b6024836137a8565b9150614c5682614bef565b604082019050919050565b60006020820190508181036000830152614c7a81614c3e565b9050919050565b6000614c8c82613769565b9150614c9783613769565b9250827fffffffffffffffffffffffffffffffffffffffffffffffffffffffffffffffff03821115614ccc57614ccb6141c6565b5b828201905092915050565b6000614ce282613769565b9150614ced83613769565b925082821015614d0057614cff6141c6565b5b828203905092915050565b7f4552433732313a207472616e7366657220746f206e6f6e20455243373231526560008201527f63656976657220696d706c656d656e7465720000000000000000000000000000602082015250565b6000614d676032836137a8565b9150614d7282614d0b565b604082019050919050565b60006020820190508181036000830152614d9681614d5a565b9050919050565b6000614da882613769565b91507fffffffffffffffffffffffffffffffffffffffffffffffffffffffffffffffff821415614ddb57614dda6141c6565b5b600182019050919050565b6000614df182613769565b9150614dfc83613769565b925082614e0c57614e0b61424f565b5b828206905092915050565b600081519050919050565b600082825260208201905092915050565b6000614e3e82614e17565b614e488185614e22565b9350614e588185602086016137b9565b614e61816137ec565b840191505092915050565b6000608082019050614e8160008301876138b1565b614e8e60208301866138b1565b614e9b6040830185613773565b8181036060830152614ead8184614e33565b905095945050505050565b600081519050614ec78161364f565b92915050565b600060208284031215614ee357614ee2613619565b5b6000614ef184828501614eb8565b91505092915050565b7f4e487b7100000000000000000000000000000000000000000000000000000000600052603160045260246000fd5b7f4552433732313a206d696e7420746f20746865207a65726f2061646472657373600082015250565b6000614f5f6020836137a8565b9150614f6a82614f29565b602082019050919050565b60006020820190508181036000830152614f8e81614f52565b9050919050565b7f4552433732313a20746f6b656e20616c7265616479206d696e74656400000000600082015250565b6000614fcb601c836137a8565b9150614fd682614f95565b602082019050919050565b60006020820190508181036000830152614ffa81614fbe565b9050919050565b7f416464726573733a20696e73756666696369656e742062616c616e636520666f60008201527f722063616c6c0000000000000000000000000000000000000000000000000000602082015250565b600061505d6026836137a8565b915061506882615001565b604082019050919050565b6000602082019050818103600083015261508c81615050565b9050919050565b7f416464726573733a2063616c6c20746f206e6f6e2d636f6e7472616374000000600082015250565b60006150c9601d836137a8565b91506150d482615093565b602082019050919050565b600060208201905081810360008301526150f8816150bc565b9050919050565b600081905092915050565b600061511582614e17565b61511f81856150ff565b935061512f8185602086016137b9565b80840191505092915050565b6000615147828461510a565b91508190509291505056fe4552433732313a207472616e7366657220746f206e6f6e20455243373231526563656976657220696d706c656d656e7465724552433732313a206f776e657220717565727920666f72206e6f6e6578697374656e7420746f6b656ea264697066735822122004ceebea7fb2aa150c5972c663c582bf67749b6d8211bf9da61493fc67d156a564736f6c634300080b0033",
  "immutableReferences": {},
  "source": "\n// contracts/GameItem.sol\n// SPDX-License-Identifier: MIT\npragma solidity ^0.8.0;\n\nimport \"@openzeppelin/contracts/utils/Context.sol\";\nimport \"@openzeppelin/contracts/utils/introspection/ERC165.sol\";\nimport \"@openzeppelin/contracts/token/common/ERC2981.sol\";\nimport \"@openzeppelin/contracts/token/ERC721/IERC721.sol\";\nimport \"@openzeppelin/contracts/token/ERC721/extensions/IERC721Metadata.sol\";\nimport \"@openzeppelin/contracts/token/ERC721/extensions/IERC721Enumerable.sol\";\nimport \"@openzeppelin/contracts/token/ERC721/IERC721Receiver.sol\";\nimport \"@openzeppelin/contracts/utils/structs/EnumerableSet.sol\";\nimport \"@openzeppelin/contracts/utils/structs/EnumerableMap.sol\";\nimport \"@openzeppelin/contracts/access/Ownable.sol\";\nimport \"@openzeppelin/contracts/utils/math/SafeMath.sol\";\nimport \"@openzeppelin/contracts/utils/Address.sol\";\nimport \"@openzeppelin/contracts/utils/Strings.sol\";\nimport \"@openzeppelin/contracts/token/ERC20/ERC20.sol\";\n\ncontract ERC721 is Context, ERC165, ERC2981, IERC721, IERC721Metadata, IERC721Enumerable {\n    using Address for address;\n    using EnumerableSet for EnumerableSet.UintSet;\n    using EnumerableMap for EnumerableMap.UintToAddressMap;\n    using Strings for uint256;\n    using SafeMath for uint256;\n\n    // Equals to `bytes4(keccak256(\"onERC721Received(address,address,uint256,bytes)\"))`\n    // which can be also obtained as `IERC721Receiver(0).onERC721Received.selector`\n    bytes4 private constant _ERC721_RECEIVED = 0x150b7a02;\n\n    // Mapping from holder address to their (enumerable) set of owned tokens\n    mapping (address => EnumerableSet.UintSet) private _holderTokens;\n\n    // Enumerable mapping from token ids to their owners\n    EnumerableMap.UintToAddressMap private _tokenOwners;\n\n    // Mapping from token ID to approved address\n    mapping (uint256 => address) private _tokenApprovals;\n\n    // Mapping from owner to operator approvals\n    mapping (address => mapping (address => bool)) private _operatorApprovals;\n\n    // Token name\n    string private _name;\n\n    // Token symbol\n    string private _symbol;\n\n    // Optional mapping for token URIs\n    mapping (uint256 => string) private _tokenURIs;\n\n    // Base URI\n    string private _baseURI;\n\n    // whitelist set of addresses\n    EnumerableSet.UintSet _whitelist;\n\n    /**\n     * @dev Initializes the contract by setting a `name` and a `symbol` to the token collection.\n     */\n    constructor (string memory name_, string memory symbol_) {\n        _name = name_;\n        _symbol = symbol_;\n    }\n\n    /**\n     * @dev See {IERC721Enumerable-totalSupply}.\n     */\n    function totalSupply() public view virtual override returns (uint256) {\n        // _tokenOwners are indexed by tokenIds, so .length() returns the number of tokenIds\n        return _tokenOwners.length();\n    }\n\n    /**\n     * @dev See {IERC721Enumerable-tokenOfOwnerByIndex}.\n     */\n    function tokenOfOwnerByIndex(address owner, uint256 index) public view virtual override returns (uint256) {\n        return _holderTokens[owner].at(index);\n    }\n\n    /**\n     * @dev See {IERC721Enumerable-tokenByIndex}.\n     */\n    function tokenByIndex(uint256 index) public view virtual override returns (uint256) {\n        (uint256 tokenId, ) = _tokenOwners.at(index);\n        return tokenId;\n    }\n\n    /**\n     * @dev See {IERC721Metadata-name}.\n     */\n    function name() public view virtual override returns (string memory) {\n        return _name;\n    }\n\n    /**\n     * @dev See {IERC721Metadata-symbol}.\n     */\n    function symbol() public view virtual override returns (string memory) {\n        return _symbol;\n    }\n\n    /**\n     * @dev See {IERC721Metadata-tokenURI}.\n     */\n    function tokenURI(uint256 tokenId) public view virtual override returns (string memory) {\n        require(_exists(tokenId), \"ERC721Metadata: URI query for nonexistent token\");\n\n        string memory _tokenURI = _tokenURIs[tokenId];\n        string memory base = baseURI();\n\n        // If there is no base URI, return the token URI.\n        if (bytes(base).length == 0) {\n            return _tokenURI;\n        }\n        // If both are set, concatenate the baseURI and tokenURI (via abi.encodePacked).\n        if (bytes(_tokenURI).length > 0) {\n            return string(abi.encodePacked(base, _tokenURI));\n        }\n        // If there is a baseURI but no tokenURI, concatenate the tokenID to the baseURI.\n        return string(abi.encodePacked(base, tokenId.toString()));\n    }\n\n    /**\n     * @dev See {IERC721-balanceOf}.\n     */\n    function balanceOf(address owner) public view virtual override returns (uint256) {\n        require(owner != address(0), \"ERC721: balance query for the zero address\");\n        return _holderTokens[owner].length();\n    }\n\n    /**\n     * @dev See {IERC721-ownerOf}.\n     */\n    function ownerOf(uint256 tokenId) public view virtual override returns (address) {\n        return _tokenOwners.get(tokenId, \"ERC721: owner query for nonexistent token\");\n    }\n    \n    /**\n     * @dev See {IERC721-safeTransferFrom}.\n     */\n    function safeTransferFrom(address from, address to, uint256 tokenId) public virtual override {\n        safeTransferFrom(from, to, tokenId, \"\");\n    }\n\n    /**\n     * @dev See {IERC721-transferFrom}.\n     */\n    function transferFrom(address from, address to, uint256 tokenId) public virtual override {\n        //solhint-disable-next-line max-line-length\n        require(_isApprovedOrOwner(_msgSender(), tokenId), \"ERC721: transfer caller is not owner nor approved\");\n\n        _transfer(from, to, tokenId);\n    }\n\n    /**\n     * @dev See {IERC721-approve}.\n     */\n    function approve(address to, uint256 tokenId) public virtual override {\n        address owner = ERC721.ownerOf(tokenId);\n        require(to != owner, \"ERC721: approval to current owner\");\n\n        require(_msgSender() == owner || ERC721.isApprovedForAll(owner, _msgSender()),\n            \"ERC721: approve caller is not owner nor approved for all\"\n        );\n\n        _approve(to, tokenId);\n    }\n\n    /**\n     * @dev See {IERC721-getApproved}.\n     */\n    function getApproved(uint256 tokenId) public view virtual override returns (address) {\n        require(_exists(tokenId), \"ERC721: approved query for nonexistent token\");\n\n        return _tokenApprovals[tokenId];\n    }\n\n    /**\n     * @dev See {IERC721-setApprovalForAll}.\n     */\n    function setApprovalForAll(address operator, bool approved) public virtual override {\n        require(operator != _msgSender(), \"ERC721: approve to caller\");\n\n        _operatorApprovals[_msgSender()][operator] = approved;\n        emit ApprovalForAll(_msgSender(), operator, approved);\n    }\n\n    /**\n     * @dev See {IERC721-isApprovedForAll}.\n     */\n    function isApprovedForAll(address owner, address operator) public view virtual override returns (bool) {\n        return _operatorApprovals[owner][operator];\n    }\n\n    /**\n     * @dev See {IERC721-safeTransferFrom}.\n     */\n    function safeTransferFrom(address from, address to, uint256 tokenId, bytes memory _data) public virtual override {\n        require(_isApprovedOrOwner(_msgSender(), tokenId), \"ERC721: transfer caller is not owner nor approved\");\n        _safeTransfer(from, to, tokenId, _data);\n    }\n\n    // override function support interface - showing what kind of interface this contract supports \n    function supportsInterface(bytes4 interfaceId) public view virtual override(ERC165, IERC165, ERC2981) returns (bool) {\n        return (super.supportsInterface(interfaceId)\n                || interfaceId == type(IERC2981).interfaceId\n                || interfaceId == type(IERC721).interfaceId\n                || interfaceId == type(IERC721Metadata).interfaceId\n                || interfaceId == type(IERC721Enumerable).interfaceId);\n    }\n\n    // custom functions\n    /**\n     * @dev Safely mints `tokenId` and transfers it to `to`.\n     *\n     * Requirements:\n     d*\n     * - `tokenId` must not exist.\n     * - If `to` refers to a smart contract, it must implement {IERC721Receiver-onERC721Received}, which is called upon a safe transfer.\n     *\n     * Emits a {Transfer} event.\n     */\n    function _safeMint(address to, uint256 tokenId) internal virtual {\n        _safeMint(to, tokenId, \"\");\n    }\n\n    /**\n     * @dev Same as {xref-ERC721-_safeMint-address-uint256-}[`_safeMint`], with an additional `data` parameter which is\n     * forwarded in {IERC721Receiver-onERC721Received} to contract recipients.\n     */\n    function _safeMint(address to, uint256 tokenId, bytes memory _data) internal virtual {\n        _mint(to, tokenId);\n        require(_checkOnERC721Received(address(0), to, tokenId, _data), \"ERC721: transfer to non ERC721Receiver implementer\");\n    }\n\n    /**\n     * @dev Mints `tokenId` and transfers it to `to`.\n     *\n     * WARNING: Usage of this method is discouraged, use {_safeMint} whenever possible\n     *\n     * Requirements:\n     *\n     * - `tokenId` must not exist.\n     * - `to` cannot be the zero address.\n     *\n     * Emits a {Transfer} event.\n     */\n     \n    function _mint(address to, uint256 tokenId) internal virtual {\n        require(to != address(0), \"ERC721: mint to the zero address\");\n        require(!_exists(tokenId), \"ERC721: token already minted\");\n\n        _beforeTokenTransfer(address(0), to, tokenId);\n\n        _holderTokens[to].add(tokenId);\n\n        _tokenOwners.set(tokenId, to);\n\n        emit Transfer(address(0), to, tokenId);\n    }\n\n    /**\n     * @dev Internal function to invoke {IERC721Receiver-onERC721Received} on a target address.\n     * The call is not executed if the target address is not a contract.\n     *\n     * @param from address representing the previous owner of the given token ID\n     * @param to target address that will receive the tokens\n     * @param tokenId uint256 ID of the token to be transferred\n     * @param _data bytes optional data to send along with the call\n     * @return bool whether the call correctly returned the expected magic value\n     */\n    function _checkOnERC721Received(address from, address to, uint256 tokenId, bytes memory _data)\n        private returns (bool)\n    {\n        if (!to.isContract()) {\n            return true;\n        }\n        bytes memory returndata = to.functionCall(abi.encodeWithSelector(\n            IERC721Receiver(to).onERC721Received.selector,\n            _msgSender(),\n            from,\n            tokenId,\n            _data\n        ), \"ERC721: transfer to non ERC721Receiver implementer\");\n        bytes4 retval = abi.decode(returndata, (bytes4));\n        return (retval == _ERC721_RECEIVED);\n    }\n\n    /**\n     * @dev Returns whether `tokenId` exists.\n     *\n     * Tokens can be managed by their owner or approved accounts via {approve} or {setApprovalForAll}.\n     *\n     * Tokens start existing when they are minted (`_mint`),\n     * and stop existing when they are burned (`_burn`).\n     */\n    function _exists(uint256 tokenId) internal view virtual returns (bool) {\n        return _tokenOwners.contains(tokenId);\n    }\n\n    /**\n     * @dev Hook that is called before any token transfer. This includes minting\n     * and burning.\n     *\n     * To be overridden\n     */\n    function _beforeTokenTransfer(address from, address to, uint256 tokenId) internal virtual { }\n\n    /**\n     * @dev Returns whether `spender` is allowed to manage `tokenId`.\n     *\n     * Requirements:\n     *\n     * - `tokenId` must exist.\n     */\n    function _isApprovedOrOwner(address spender, uint256 tokenId) internal view virtual returns (bool) {\n        require(_exists(tokenId), \"ERC721: operator query for nonexistent token\");\n        address owner = ERC721.ownerOf(tokenId);\n        return (spender == owner || getApproved(tokenId) == spender || ERC721.isApprovedForAll(owner, spender));\n    }\n\n    /**\n     * @dev Transfers `tokenId` from `from` to `to`.\n     *  As opposed to {transferFrom}, this imposes no restrictions on msg.sender.\n     *\n     * Requirements:\n     *\n     * - `to` cannot be the zero address.\n     * - `tokenId` token must be owned by `from`.\n     *\n     * Emits a {Transfer} event.\n     */\n    function _transfer(address from, address to, uint256 tokenId) internal virtual {\n        require(ERC721.ownerOf(tokenId) == from, \"ERC721: transfer of token that is not own\"); // internal owner\n        require(to != address(0), \"ERC721: transfer to the zero address\");\n\n        _beforeTokenTransfer(from, to, tokenId);\n\n        // Clear approvals from the previous owner\n        _approve(address(0), tokenId);\n\n        _holderTokens[from].remove(tokenId);\n        _holderTokens[to].add(tokenId);\n\n        _tokenOwners.set(tokenId, to);\n\n        emit Transfer(from, to, tokenId);\n    }\n\n    /**\n     * @dev Approve `to` to operate on `tokenId`\n     *\n     * Emits an {Approval} event.\n     */\n    function _approve(address to, uint256 tokenId) internal virtual {\n        _tokenApprovals[tokenId] = to;\n        emit Approval(ERC721.ownerOf(tokenId), to, tokenId); // internal owner\n    }\n\n    /**\n     * @dev Safely transfers `tokenId` token from `from` to `to`, checking first that contract recipients\n     * are aware of the ERC721 protocol to prevent tokens from being forever locked.\n     *\n     * `_data` is additional data, it has no specified format and it is sent in call to `to`.\n     *\n     * This internal function is equivalent to {safeTransferFrom}, and can be used to e.g.\n     * implement alternative mechanisms to perform token transfer, such as signature-based.\n     *\n     * Requirements:\n     *\n     * - `from` cannot be the zero address.\n     * - `to` cannot be the zero address.\n     * - `tokenId` token must exist and be owned by `from`.\n     * - If `to` refers to a smart contract, it must implement {IERC721Receiver-onERC721Received}, which is called upon a safe transfer.\n     *\n     * Emits a {Transfer} event.\n     */\n    function _safeTransfer(address from, address to, uint256 tokenId, bytes memory _data) internal virtual {\n        _transfer(from, to, tokenId);\n        require(_checkOnERC721Received(from, to, tokenId, _data), \"ERC721: transfer to non ERC721Receiver implementer\");\n    }\n\n    /**\n    * @dev Returns the base URI set via {_setBaseURI}. This will be\n    * automatically added as a prefix in {tokenURI} to each token's URI, or\n    * to the token ID if no specific URI is set for that token ID.\n    */\n    function baseURI() public view virtual returns (string memory) {\n        return _baseURI;\n    }\n\n    /**\n     * @dev Internal function to set the base URI for all token IDs. It is\n     * automatically added as a prefix to the value returned in {tokenURI},\n     * or to the token ID if {tokenURI} is empty.\n     */\n    function _setBaseURI(string memory baseURI_) internal virtual {\n        _baseURI = baseURI_;\n    }\n\n}\n\n// main contract to handle NFT generation & management\ncontract myNFT is ERC721, Ownable {\n    using SafeMath for uint256;\n\n    // Maximum NFT to be minted each minting\n    uint256 public MAX_NFT;\n\n    // Maximum NFT can be minted each time\n    uint public constant maxNFTEachMinting = 10;\n\n    // price per NFT in Ether\n    uint256 public constant pricePerNFTinEther = 0.01 ether;\n\n    // price per NFT in token X\n    uint256 public constant pricePerNFTinTokenX = 100;\n\n    // change minting mode: whitelist or free?\n    enum mintingMode{ style1, style2, style3 }\n    mintingMode public mintMode = mintingMode.style1;\n    uint public tungpham = 9;\n\n    // map user address to the number of token can be minted\n    mapping(address => uint256) public _whiteList;\n\n    // todo: change contract address that manage the token we want.\n    address private erc20ContractAddress = 0x61175b02C97c13185ad10de68498b9874a7ce4a1;\n\n    // constructor sets max supply\n    constructor(string memory name, string memory symbol, uint256 maxNftSupply) ERC721(name, symbol) {\n        MAX_NFT = maxNftSupply;\n    }\n\n    //modifier that helps check to see if the user has a specific erc20 token\n    modifier hasTheXToken(address user) {\n        ERC20 erc20instance = ERC20(erc20ContractAddress);\n        uint balance = erc20instance.balanceOf(user);\n        require((balance > 0), \"Qualifications don't meet: token X\");\n        _;\n    }\n\n    // set base URI for the NFT\n    function setBaseURI(string memory baseURI) public onlyOwner {\n        _setBaseURI(baseURI);\n    }\n\n    /**\n     * @dev set minting mode\n     * 1: style 1: style default, send Ether to mint\n     * 2: style 2: whitelist, send Ether to mint\n     * 3: style 3: send a specific erc20 token to mint\n     */\n    function setMintingMode(uint8 mode) external onlyOwner {\n        // TODO: improve when mode doesn't belong to (1,3)\n        mintMode = mintingMode(mode);\n    }\n\n    // Set up white list\n    function setWhiteList(address[] calldata addresses, uint8 numAllowedToMint) external onlyOwner {\n        for (uint256 i = 0; i < addresses.length; i.add(1)) {\n            _whiteList[addresses[i]] = numAllowedToMint;\n        }\n    }\n\n    // Helper check to see how many NFT left for user to mint\n    function numAvailableToMint(address addr) external view returns (uint256) {\n        return _whiteList[addr];\n    }\n\n    // user call this function to approve this contract to spend their ERC20 token\n    function sendERC20ToMint(uint8 numberOfNFTTokens, uint256 amountOfTokenX) external hasTheXToken(_msgSender()) {\n        require((mintMode == mintingMode.style3), \"Unmatched minting style is not allowed\");\n        ERC20 erc20instance = ERC20(erc20ContractAddress);\n        // TODO: verify if msg.sender is identical in the 2 following function (the token sender?)\n        erc20instance.approve(address(this), pricePerNFTinTokenX);\n        erc20instance.transferFrom(_msgSender(), address(this), pricePerNFTinTokenX);\n\n        require(numberOfNFTTokens <= maxNFTEachMinting, \"Can only mint maximally 10 tokens at a time\");\n        require(totalSupply().add(numberOfNFTTokens) <= MAX_NFT, \"token number exceeded\");\n        require(pricePerNFTinTokenX.mul(numberOfNFTTokens) <= amountOfTokenX, \"The amount of token X sent is not suffiicient\");\n\n        for (uint256 i = 0; i < numberOfNFTTokens; i.add(1)) {\n            _safeMint(msg.sender, totalSupply().add(i));\n        }\n    }\n\n    /**\n    * Mints CAN NFT based on whitelist\n    */\n    function whiteListBasedMint(uint8 numberOfNFTTokens) external payable hasTheXToken(_msgSender()) {\n        require((mintMode == mintingMode.style2), \"Unmatched minting style is not allowed\");\n        require(numberOfNFTTokens <= _whiteList[msg.sender], \"Exceeded max available to purchase\");\n        require(totalSupply().add(numberOfNFTTokens) <= MAX_NFT, \"Purchase would exceed max tokens\");\n        require(pricePerNFTinEther.mul(numberOfNFTTokens) <= msg.value, \"Ether value sent is not sufficient\");\n\n        _whiteList[msg.sender] = _whiteList[msg.sender].sub(numberOfNFTTokens);\n        for (uint256 i = 0; i < numberOfNFTTokens; i.add(1)) {\n            _safeMint(msg.sender, totalSupply().add(i));\n        }\n    }\n\n    /**\n    * Mints CAN NFT\n    */\n    function mint(uint numberOfNFTTokens) external payable hasTheXToken(_msgSender()){\n        require((mintMode == mintingMode.style1), \"Unmatched minting style is not allowed\");\n        require(numberOfNFTTokens <= maxNFTEachMinting, \"Can only mint maximally 10 tokens at a time\");\n        require(totalSupply().add(numberOfNFTTokens) <= MAX_NFT, \"token number exceeded\");\n        require(pricePerNFTinEther.mul(numberOfNFTTokens) <= msg.value, \"Ether value sent is not sufficient\");\n\n        for(uint i = 0; i < numberOfNFTTokens; i.add(1)) {\n            uint mintIndex = totalSupply();\n            if (totalSupply() < MAX_NFT) {\n                _safeMint(_msgSender(), mintIndex);\n            }\n        }\n    }\n}",
  "sourcePath": "/Users/leclevietnam/Desktop/work/blockchain/Truffle/CANNFT/contracts/myNFT.sol",
  "compiler": {
    "name": "solc",
    "version": "0.8.11+commit.d7f03943.Emscripten.clang"
  },
  "schemaVersion": "3.4.4",
  "updatedAt": "2022-02-23T02:48:09.298Z",
  "networkType": "ethereum",
  "devdoc": {
    "kind": "dev",
    "methods": {
      "approve(address,uint256)": {
        "details": "See {IERC721-approve}."
      },
      "balanceOf(address)": {
        "details": "See {IERC721-balanceOf}."
      },
      "baseURI()": {
        "details": "Returns the base URI set via {_setBaseURI}. This will be automatically added as a prefix in {tokenURI} to each token's URI, or to the token ID if no specific URI is set for that token ID."
      },
      "getApproved(uint256)": {
        "details": "See {IERC721-getApproved}."
      },
      "isApprovedForAll(address,address)": {
        "details": "See {IERC721-isApprovedForAll}."
      },
      "name()": {
        "details": "See {IERC721Metadata-name}."
      },
      "owner()": {
        "details": "Returns the address of the current owner."
      },
      "ownerOf(uint256)": {
        "details": "See {IERC721-ownerOf}."
      },
      "renounceOwnership()": {
        "details": "Leaves the contract without owner. It will not be possible to call `onlyOwner` functions anymore. Can only be called by the current owner. NOTE: Renouncing ownership will leave the contract without an owner, thereby removing any functionality that is only available to the owner."
      },
      "royaltyInfo(uint256,uint256)": {
        "details": "Returns how much royalty is owed and to whom, based on a sale price that may be denominated in any unit of exchange. The royalty amount is denominated and should be payed in that same unit of exchange."
      },
      "safeTransferFrom(address,address,uint256)": {
        "details": "See {IERC721-safeTransferFrom}."
      },
      "safeTransferFrom(address,address,uint256,bytes)": {
        "details": "See {IERC721-safeTransferFrom}."
      },
      "setApprovalForAll(address,bool)": {
        "details": "See {IERC721-setApprovalForAll}."
      },
      "setMintingMode(uint8)": {
        "details": "set minting mode 1: style 1: style default, send Ether to mint 2: style 2: whitelist, send Ether to mint 3: style 3: send a specific erc20 token to mint"
      },
      "symbol()": {
        "details": "See {IERC721Metadata-symbol}."
      },
      "tokenByIndex(uint256)": {
        "details": "See {IERC721Enumerable-tokenByIndex}."
      },
      "tokenOfOwnerByIndex(address,uint256)": {
        "details": "See {IERC721Enumerable-tokenOfOwnerByIndex}."
      },
      "tokenURI(uint256)": {
        "details": "See {IERC721Metadata-tokenURI}."
      },
      "totalSupply()": {
        "details": "See {IERC721Enumerable-totalSupply}."
      },
      "transferFrom(address,address,uint256)": {
        "details": "See {IERC721-transferFrom}."
      },
      "transferOwnership(address)": {
        "details": "Transfers ownership of the contract to a new account (`newOwner`). Can only be called by the current owner."
      }
    },
    "version": 1
  },
  "userdoc": {
    "kind": "user",
    "methods": {
      "mint(uint256)": {
        "notice": "Mints CAN NFT"
      },
      "whiteListBasedMint(uint8)": {
        "notice": "Mints CAN NFT based on whitelist"
      }
    },
    "version": 1
  }
}